:100000000C94A5020C94EC020C94EC020C94EC02FF
:100010000C94EC020C94EC020C94EC020C94EC02A8
:100020000C94EC020C94EC020C9482290C94532A4C
:100030000C9497230C94EC020C94EC020C94EC02BC
:100040000C94EC020C94EC020C94EC020C94EC0278
:100050000C94BA0E0C94EE230C94EC020C94EC026B
:100060000C94EC020C94EC020C94EC020C94EC0258
:100070000C94EC020C94EC020C94EC020C94EC0248
:100080000C94EC020C94EC020C94EC020C94EC0238
:100090000C94EC020C94EC020C94EC020C94EC0228
:1000A0000C94EC020C94EC020C94EC022900140069
:1000B0001A000800150017002B00040016000700A6
:1000C00009000A00E10000001D001B0006001900E5
:1000D000E000E300F400E20000002C004F005100BB
:1000E0005000025101510000E5005200390010009B
:1000F00011000500280000000F000E000D000B008D
:100100002A00130012000C0018001C0035001E000D
:100110001F00200021002200010049004A004B007E
:100120002D002E00010000004C004D004E0001008B
:1001300001000100F400010000000100F500F600DC
:10014000F40001000100000001000100010038007E
:1001500037003600010000003400330030002F006B
:100160003100270026002500240023003A003B0030
:100170003C003D003E003F00C15CBC5CBD5CBE5C21
:10018000BB5CBF5C0100F90046004700480001006D
:1001900001000100F6000100FC00005CF500F60023
:1001A000F40001000100FA00010001000100A900B3
:1001B000AA00A8001350FB000100BD00BE00010012
:1001C0004500440043004200410040001050000040
:1001D000000000000000000000000000000000001F
:1001E000000000000000000000000000000000000F
:1001F0000000000000000000000000000A5D095D32
:10020000085D0000000000000D5D0C5D0B5D00004E
:1002100000000000000000000000000000000000DE
:100220000F5D0E5D000000000000000000000000F7
:10023000000000002A2B2800000000000000000041
:100240000000000000000029000000002C1E3420E7
:10025000212224342627252E362D3738271E1F200D
:100260002122232425263333362E37381F04050652
:100270000708090A0B0C0D0E0F1011121314151696
:100280001718191A1B1C1D2F3130232D3504050694
:100290000708090A0B0C0D0E0F1011121314151676
:1002A0001718191A1B1C1D2F3130354C0000000087
:1002B000000000000000000000000000000000003E
:1002C000000000000000000000000000000000002E
:1002D0007E0F00D4FFFFFFC7000000780000000081
:1002E0000000000000000001010203040506080AE6
:1002F0000C0F1114181C2024292E33393F464C535F
:100300005B626A7179818A929AA2AAB2B9C1C8CF96
:10031000D5DCE1E7EBF0F4F7FAFCFDFEFFFEFDFCB7
:10032000FAF7F4F0EBE7E1DCD5CFC8C1B9B2AAA285
:100330009A928A8179716A625B534C463F39332EB7
:100340002924201C1814110F0C0A080605040302A6
:100350000101000000000000000000000C03450047
:100360006E006A006F007900000012034C00650007
:100370006F002000440065006E0067000000040369
:10038000090409027400040100A0FA090400000134
:10039000030101000921110100012240000705812C
:1003A0000308000A090401000203000000092111EA
:1003B0000100012222000705820320000107050336
:1003C00003200001090402000103000000092111BB
:1003D00001000122B6000705840320000A09040376
:1003E000000103000000092111010001222A000779
:1003F00005850308000A120110010000000829DE2B
:10040000087302000102000105010904A101A10015
:100410000501093009311581257F95027508810292
:1004200005091901290815002501950875018102A2
:10043000C0C00660FF0961A1010962150026FF0026
:100440009520750881020963150026FF0095207527
:10045000089102C005010902A10185020901A1005C
:100460000509190129081500250195087501810262
:100470000501093009311581257F9502750881062E
:1004800009381581257F950175088106050C0A3804
:10049000021581257F950175088106C0C0050109F7
:1004A00080A101850319012AB700150126B700951F
:1004B0000175108100C0050C0901A1018504190115
:1004C0002AA002150126A002950175108100C00521
:1004D000010906A1018505050719E029E715002591
:1004E000019508750181020507190029EF150025FE
:1004F0000195F07501810205081901290595057519
:10050000019102950175039101C005010906A10140
:10051000050719E029E715002501950875018102F5
:100520009501750881010507190029FF150026FFAF
:1005300000950675088100050819012905950575BE
:10054000019102950175039101C011241FBECFEFE7
:10055000DAE0DEBFCDBF04B603FE27C08091C30240
:100560009091C402A091C502B091C6028730904B11
:10057000A740B04BD1F41092C3021092C402109263
:10058000C5021092C60214BE84B7877F84BF0FB61F
:10059000F894A89580916000886180936000109223
:1005A00060000FBEE0E0F8E3099511E0A0E0B1E0E3
:1005B000ECEAFDE502C005900D92A03BB107D9F72A
:1005C00022E0A0EBB1E001C01D92A33CB207E1F72D
:1005D0000E9441260C94922E0C940000CF930E940E
:1005E000C716811522E0920781F1811522E092075A
:1005F00044F560E072E0681B790BC1E0072E000C47
:10060000880B990B0E94AF2C20E030E84FEF53E4A9
:100610000E94052C20E030E04EEF52E40E943B2D7A
:100620000E94772C9B0177FD10C0C69F802D11245E
:100630002038310524F08FE7C89F802D1124CF91F9
:100640000895BC017250CFEFD9CF80E0F8CFCF92A0
:10065000DF92EF92FF921F93CF93DF930E94EE02FF
:10066000182F082E000C990B009709F43FC0209119
:10067000B501211106C02091B401C8EED3E02223B8
:1006800011F0C8E8D3E197FF03C0919581959109D6
:10069000BC01990F880B990B0E94AF2C6B017C0158
:1006A000612F110F770B880B990B0E94AF2C9B01C8
:1006B000AC01C701B6010E943B2D6B017C01BE015C
:1006C000DD0F880B990B0E94AF2C9B01AC01C70179
:1006D000B6010E94052C0E94772C862FDF91CF91C6
:1006E0001F91FF90EF90DF90CF90089580E0F6CFBC
:1006F0000F931F93CF93DF93CDB7DEB728970FB635
:10070000F894DEBF0FBECDBF182F91E0998382E031
:100710008A8385E08B8384E08C839D8396E09E832F
:100720008F8383E0888784EF0E94EE02082F85EF95
:100730000E94EE02402F002E000C550B57FF03C005
:10074000519541955109282F082E000C330B37FF86
:1007500003C031952195310924173507ACF46F8119
:1007600078850134CCF46D817E81003CACF090E062
:1007700080E028960FB6F894DEBF0FBECDBFDF91A4
:10078000CF911F910F9108956B817C81813424F466
:10079000803C6CF769817A81812F28960FB6F89496
:1007A000DEBF0FBECDBFDF91CF911F910F910C9493
:1007B0008E1190E080E00895089560914E0270914E
:1007C0004F0280915002909151020E94680682303F
:1007D000C1F48091B2019091B3010E94DF23209176
:1007E00000012817190640F50E94C7239093B30112
:1007F0008093B20145EF64EF82E00E9478030C948D
:100800000C198330C9F484EF0E94EE02082E000C0C
:10081000990B9093DC018093DB0185EF0E94EE023F
:10082000082E000C990B9093DE018093DD018091DE
:10083000DF0182608093DF010895813E910529F0F8
:10084000853E910539F081E00895FB018281809316
:10085000B501F9CFFB0182818093B401F4CFCF932E
:10086000DF9300D000D000D0CDB7DEB70E94D80C07
:1008700029833A834B835C836D837E8360914E0230
:1008800070914F0280915002909151020E9468062F
:100890008230C8F48091B2019091B3010E94DF23AD
:1008A000209101012817190670F40E94C723909324
:1008B000B3018093B20184EF0E9427038B8385EFFD
:1008C0000E9427038C8349815A816B817C818D81B1
:1008D0009E810E94F90C26960FB6F894DEBF0FBEDB
:1008E000CDBFDF91CF910C949E0C81E008950C94C4
:1008F0001D0408950C9479041F93CF93DF9300D0C7
:1009000000D00F92CDB7DEB749835A836B83309105
:10091000F70189819A8131111DC06623B9F0222324
:10092000A9F00E948420182F682F89819A810E9443
:100930002D2069817A81812F0F900F900F900F9059
:100940000F90DF91CF911F910C948E110E945B202C
:10095000182FEFCF0E94842069817A81EDCFFC01AE
:10096000262F408151816281738184810C947C04A3
:10097000CF93DF93EC0160E00E94AF04BE01DF91F2
:10098000CF910C947A048F929F92AF92BF92CF92A4
:10099000DF92EF92FF920F931F936B017C0181E036
:1009A00090E0A0E0B0E04C015D0104C0880C991C0F
:1009B000AA1CBB1C4A95D2F7B501A4014C015D01EC
:1009C00004C0880C991CAA1CBB1C2A95D2F7482984
:1009D00059296A297B2904C0880F991FAA1FBB1FA8
:1009E0000A95D2F78A019B010C211D212E213F215E
:1009F000041715072607370789F48C299D29AE2986
:100A0000BF29BC01CD011F910F91FF90EF90DF90A6
:100A1000CF90BF90AF909F908F90089580959095C4
:100A2000A095B0958C219D21AE21BF21EACF0F93D7
:100A3000382F262F60914E0270914F028091500204
:100A400090915102042F432F0E94C3040F910C94E4
:100A50006B1F0E942A240E94D021811102C00E9493
:100A60007D220E94C7060E94290F0C94CA080C948C
:100A7000CC0808950E94971B0E9439052FE78AE150
:100A800096E0215080409040E1F700C000000C94B7
:100A900012240F931F93CF93DF93EC0161E00E9428
:100AA000AF048C01BE010E94960F8823B9F1BE01EC
:100AB000C8010E947704882389F1BE01C8010E9401
:100AC000120E882359F1BE01C8010E94C512882365
:100AD00029F1BE01C8010E9417138823F9F0BE0155
:100AE000C8010E943A148823C9F0BE01C8010E94BF
:100AF0008C14882399F08A81882339F001158CE5BC
:100B0000180751F00E3D1C4579F0CE01DF91CF91D1
:100B10001F910F910C9475040E943A0580E0DF91BB
:100B2000CF911F910F9108950E947D22F7CFDF9200
:100B3000EF92FF920F931F93CF93DF93E82FF0E094
:100B4000E45DFD4FD490282F26952695269530E01C
:100B5000F901E453FD4F0491877010E0082E02C0A4
:100B6000159507950A94E2F701701127F901E454ED
:100B7000FD4FE490F12C082E02C0F594E7940A94FE
:100B8000E2F791E0E922FF24F901E455FD4FC49119
:100B9000D0E002C0D595C7958A95E2F7C170DD27F0
:100BA0000115110519F081EE0E947818E114F10485
:100BB00019F086EE0E9478188D2D0E940C19EF28EE
:100BC00019F086EE0E94C618012B19F081EE0E94E2
:100BD000C618CD2B51F08CE2DF91CF911F910F9170
:100BE000FF90EF90DF900C940C19DF91CF911F9143
:100BF0000F91FF90EF90DF900895EF92FF920F9387
:100C00001F93CF93DF93EC01162F0AE0888188238E
:100C100009F454C0813009F04EC08981813099F4C3
:100C20007E0122E0E20EF11C8A810E940C19E7018C
:100C30002196812F815050F3EFECF7E03197F1F7D7
:100C400000C00000F7CF823041F47E0182E0E80E60
:100C5000F11C8A810E947818EACF833041F47E012A
:100C6000E2E0EE0EF11C8A810E94C618E0CF8430CB
:100C700011F02196DDCF2A81229690E080E0AE012E
:100C80004F5F5F4F2053330B2A30310548F00197F7
:100C900078F2EFECF7E03197F1F700C00000F7CF02
:100CA000089FB001099F700D1124C901860F971F7D
:100CB0002981EA01E4CF0E949705BACFDF91CF9155
:100CC0001F910F91FF90EF90089560E00C94FD0547
:100CD000CF92DF92EF92FF926C01EE24FF2420E08E
:100CE000C114D104E104F10419F0C701B60120E1F7
:100CF000C72ED82EE92EFF24C114D104E104F1043B
:100D000019F0285FC701B6016B017C0154E0F6942D
:100D1000E794D794C7945A95D1F7C114D104E1044C
:100D2000F10419F02C5FC701B6016B017C0142E0B0
:100D3000F694E794D794C7944A95D1F7C114D10497
:100D4000E104F10419F02E5FC701B601969587956D
:100D500077956795672B682B692B09F02F5F822F9A
:100D6000FF90EF90DF90CF90089508950C94B50612
:100D700081E00895CF93C82F0E94B806882319F008
:100D8000C1FD03C02A9ACF9108952A98FCCF229AD8
:100D90002A9A0895CF93C82F0E94B6068C2FCF9120
:100DA0000C94BA060895FC01EE0FFF1FE452FD4FAC
:100DB000859194910895CF93DF930E948E110E94A4
:100DC000F007EC01811520E5920708F042C081157B
:100DD00030E4930708F0BDC0883E910528F5803EB9
:100DE000910508F09DC0883A910588F4853A9105EF
:100DF00008F08FC08130910509F492C0009709F482
:100E00008FC0049708F08CC0D0E0C0E089C08F3B51
:100E1000910508F489C0805C9109C03CD105A0F31C
:100E20000E94D306EC017CC08115904250F4C1159C
:100E300081E0D80708F074C0C03FD10528F3D06521
:100E40006FC0C11590E3D90708F079C0CE019F703B
:100E5000E7CF811525E5920758F5811534E593070D
:100E600008F0A6C0811542E5940750F4C11581E54C
:100E7000D80708F471C0DC2FCC27C16FD06A50C0EE
:100E8000982F969596959E0123703327C115D345CB
:100E900008F07FC0C1E0D0E002C0CC0FDD1F2A9572
:100EA000E2F720E2929FC0011124C82BD92B6FC01A
:100EB000C11589E5D807A8F4C11598E5D90708F048
:100EC0007CC0C11526E5D20708F09ECF8C2F0E946A
:100ED0008708C82FD0E0DC2FCC27CC27DF71D06269
:100EE0001FC0C1153AE5D30708F46CC0CE01905677
:100EF0008115904208F088CF8D2F8F710E9487084E
:100F000090E0982F882788279F719C012C2BE9015E
:100F1000E6CFC55AD0E0C75ADE4FC881D0E0D064D2
:100F2000CE01DF91CF910895C85AD0E0CC0FDD1FDC
:100F3000C55DDE4F0990D881C02DD464F1CFCE01BC
:100F40009927D3FF03C0EC01D86CEACFEC01D06C39
:100F5000E7CFDF70D06AE4CFCE01E4E096958795C5
:100F6000EA95E1F783702C2F26952695237090E261
:100F7000299F90011124382B8C2F8370C1E0D0E081
:100F800002C0CC0FDD1F8A95E2F7C22BD32BDC68A1
:100F9000C7CFC1E0D0E002C0CC0FDD1F2A95E2F739
:100FA00030E2939FC0011124C82BD92BDA68B8CF47
:100FB000D82FCC27C46FD06AB3CFDC2FCC27C06F1B
:100FC000D06AAECF8C2F8F700E94870834E0D69500
:100FD000C7953A95E1F7CF709C2FEC01D069A0CF6F
:100FE00082389105B1F1B0F48133910509F475C0EF
:100FF00048F48932910509F469C08A32910509F4EF
:1010000073C008958533910509F459C0893391055A
:1010100001F10895833E9105A9F138F4803E9105D0
:10102000F9F0823E910549F10895863E9105A9F1B6
:10103000873E9105C9F1843E910519F52091B502CD
:1010400021FF1FC08091B40284FD14C087EE90E0A0
:1010500008952091B4022370A1F080EE90E00895ED
:101060002091B40220FD47C03091B50230FF09C085
:1010700024FF44C090E080E004C02091B40222FD2F
:10108000F7CF08952091B40222FD3BC03091B50204
:1010900030FDE3CF24FFF5CFEDCF2091B40223FF45
:1010A000F0CF24FDE7CFD2CF2091B40223FD2CC096
:1010B0003091B50231FFEECF84EE90E0089520919B
:1010C000B40225FFDECF89E290E008952091B402BA
:1010D00025FFD7CF85E390E008952091B40226FF45
:1010E000D0CF8AE290E008952091B40226FFC9CFC4
:1010F00081E390E0089589E390E0089583EE90E025
:10110000089582EE90E0089586EE90E00895909123
:10111000B40292FF06C0282F28712830F9F4877F87
:10112000846093FF06C0282F28712831F1F4877E50
:1011300084612091B50220FF06C0382F3871383005
:10114000D9F4877F816021FF06C0282F28712831BC
:10115000D1F4877E816194FD877E0895282F2471C4
:101160002430F9F68B7F8860DCCF282F247124315E
:1011700001F78B7E8861DDCF382F3171313019F75F
:101180008E7F8860E0CF282F2171213121F78E7E5C
:101190008861E1CF0C94DC030C94DD03E82FF0E0D0
:1011A000E955FD4F80810895089580E58A95F1F70E
:1011B000089500C008950C94D508F894E82FE2959E
:1011C000EF70F0E031A1282F2F7081E090E001C096
:1011D000880F2A95EAF7982F9095932391A392A1CF
:1011E000892B82A378940895CF93DF93C2E6D1E050
:1011F00089910E94DD0881E0CA36D807C9F782E9E3
:101200000E94DD0883E90E94DD0887E90E94DD086D
:1012100085E30E94DD0886EF0E94DD0887EF0E94CB
:10122000DD08EFE9F2E0A7EAB2E011921D9282E058
:10123000E73AF807D1F788E00E949D09DF91CF9146
:101240000C942905BF92CF92DF92EF92FF920F93F9
:101250001F93CF93DF9302E611E0CFE9D2E0C12CD8
:10126000D12CEE24E394F12CF80181918F01F894B4
:10127000E82FE295EF70F0E021A18F70A70102C086
:10128000440F551F8A95E2F7CA01922F982B91A31C
:1012900092A18095892382A378940E94D908ECE5D5
:1012A000F1E030E020E0B12C4191A42FA295AF7085
:1012B000B0E090968C9190E04F7002C09595879524
:1012C0004A95E2F780FD35C08E2D022E01C0880FB1
:1012D0000A94EAF7B82A2F5F3F4F2630310521F7ED
:1012E000F801319780810E94DD0857E0C5120E9405
:1012F000DB088881B816F9F0B88281E0D82AC39457
:10130000219688E0C812B0CF2D2D48E067EA72E040
:101310008FE992E00E949E090E9437058D2DDF9192
:10132000CF911F910F91FF90EF90DF90CF90BF90E2
:10133000089580E0CFCF80E0E1CF0895FF920F9332
:101340001F93CF93DF93F82E092F162FD72FC42F7B
:10135000222349F081E08093B8010E94C723909333
:10136000B7018093B6018091B8018823A1F08091E4
:10137000B6019091B7010E94DF23069760F0EF2D30
:10138000F02FA12FBD2FCE0FDF2FD11DEC17FD07A2
:1013900041F41092B801DF91CF911F910F91FF900E
:1013A000089581918D93F2CF8091BF0180FF12C08B
:1013B0006091190185E0689FB001112475956795CA
:1013C0007595679560387105A8F561157105A1F1EE
:1013D000862F089581FF09C06091190185E0689FFB
:1013E000B001112475956795EDCF6091190182FDCB
:1013F0000AC08091BE018823D1F0909118016091BC
:101400001901891728F085E0689FB0011124DACF0F
:10141000869FB001112485E0869F9001879F300D43
:101420001124692F70E0C9010E94CC2DCBCF65E05B
:1014300070E0CECF8FE7089581E008958091BF01DD
:1014400080FF0CC06091150170E0759567957595EA
:1014500067956115710549F1862F089581FF06C0D2
:101460006091150170E075956795F3CF6091150156
:1014700082FD0BC09091BD019923A1F060911401F0
:1014800080911501961738F0682F70E0603871056B
:1014900000F38FE70895899FC001112470E00E9436
:1014A000CC2DF4CF61E070E0D7CF81E00895803F8C
:1014B00031F40E94D40981958093C3010895813F3E
:1014C00019F40E94D409F8CF823F31F40E94D40964
:1014D00081958093C2010895833F19F40E94D40935
:1014E000F8CF893F29F40E941E0A8093C401089511
:1014F0008A3F21F40E941E0A8195F7CF8B3F31F479
:101500000E941E0A81958093C50108958C3F19F4AD
:101510000E941E0AF8CF9CE0980F953070F4845F0B
:10152000990B21E030E001C0220F8A95EAF7809103
:10153000C101822B8093C10108958D3F31F48091C8
:10154000BF0181608093BF0108958E3F21F4809197
:10155000BF018260F7CF8F3FB9F78091BF018460F0
:10156000F1CF4091C201803F59F48091C30187FFC0
:101570000DC01092C30141110BC01092BE0108C0F2
:10158000813F81F48091C30118169CF3442381F0BC
:101590008091C4019091C501892B09F05AC0109225
:1015A000BD010895823F49F447FFF0CF1092C20178
:1015B0008091C3018111ECCFE0CF833F19F4141661
:1015C000ACF3E4CF9091C401893F29F41916F4F6E5
:1015D0001092C401DBCF8A3F19F497FFD7CFF8CF21
:1015E0009091C5018B3F29F497FFD0CF1092C50190
:1015F000CDCF8C3F19F41916CCF3C8CF9CE0980FCF
:10160000953090F4845F990B21E030E0B90102C07D
:10161000660F771F8A95E2F7CB0180959091C10103
:1016200089238093C101B2CF8D3F31F48091BF01F6
:101630008E7F8093BF01AACF8E3F21F48091BF019E
:101640008D7FF7CF8F3F09F0A1CF8091BF018B7FB6
:10165000F0CF08950E94C7239C019091C201809110
:10166000C301982B21F03093BC012093BB019091D2
:10167000C4018091C501982B21F03093BA012093C9
:10168000B90180EC91E00C94F616EF92FF920F9363
:101690001F93CF93DF9300D000D000D0CDB7DEB73B
:1016A00086E0E0ECF1E0DE01119601900D928A9562
:1016B000E1F7E090C201F090C3010091C4011091E4
:1016C000C5011092C2011092C3011092C401109280
:1016D000C5018E2D8F2991F08091BB019091BC01A5
:1016E0000E94DF23AC019091BE01992309F43FC011
:1016F00080911A018417150608F447C0802F812BAA
:1017000091F08091B9019091BA010E94DF23AC0160
:101710009091BD01992309F477C080911601841737
:10172000150608F47FC08091C2019091C301892BF6
:101730009091C401892B9091C501892B11F00E94D1
:101740002A0B86E0FE013196A0ECB1E001900D92EB
:101750008A95E1F726960FB6F894DEBF0FBECDBF8F
:10176000DF91CF911F910F91FF90EF9008952091FD
:101770001B018AE0289F900111242417350708F0E7
:10178000BDCF9F5F9093BE0102C09F3FD1F7EE2077
:1017900059F00E94D4099FEF1E140CF491E0899F28
:1017A000802D11248093C201FF2059F00E94D4099A
:1017B0009FEF1F140CF491E0899F802D11248093DA
:1017C000C3013091C201332309F498CF2091C301A2
:1017D000222309F493CF45EB3403C001112499234C
:1017E00059F09093C20145EB240390011124332357
:1017F00039F03093C30182CF81E08093C201F3CFEF
:1018000081E08093C3017ACF209117018AE0289F5D
:10181000900111242417350708F085CF9F5F90931E
:10182000BD0102C09F3FD1F7002359F00E941E0A5C
:101830009FEF10160CF491E0899F802D1124809366
:10184000C401112359F00E941E0A9FEF11160CF4D7
:1018500091E0899F802D11248093C5013091C401AE
:10186000332309F460CF2091C501222309F45BCF13
:1018700045EB3403C0011124992359F09093C4011E
:1018800045EB240390011124332339F03093C50133
:101890004ACF81E08093C401F3CF81E08093C501FA
:1018A00042CF86E0E0ECF1E0DF011D928A95E9F796
:1018B0001092BE011092BD011092BF010895EF92E7
:1018C000FF920F931F93CF93DF93CDB7DEB72C9783
:1018D0000FB6F894DEBF0FBECDBF7C838D839E8391
:1018E0001A872B873C875F1119C0662311F00613F6
:1018F00015C08C81882319F09A8598130FC08E81AA
:10190000882319F09C85981309C09D81992321F0A3
:1019100081E02B85291303C080E001C081E0817044
:101920002C960FB6F894DEBF0FBECDBFDF91CF91DE
:101930001F910F91FF90EF9008950895EF92FF92FD
:101940000F931F93E090C601F090C7010091C8016A
:101950001091C9012091CA013091CB014091CC0175
:101960005091CD016091CE017091CF018091D00155
:101970009091D1010E945F0C882321F08CEC91E0C2
:101980000E94F6161092CE011092CF011092D00153
:101990001092D10186E0ECECF1E0A6ECB1E0019010
:1019A0000D928A95E1F71F910F91FF90EF900895A6
:1019B000CF93DF9300D000D000D0CDB7DEB786E064
:1019C000ECECF1E0DE01119601900D928A95E1F7C1
:1019D00029813A814B815C816D817E8180E090E03C
:1019E00026960FB6F894DEBF0FBECDBFDF91CF9124
:1019F0000895CF93DF9300D000D000D0CDB7DEB7ED
:101A000049835A836B837C838D839E8386E0FE01AA
:101A10003196ACECB1E001900D928A95E1F72696F3
:101A20000FB6F894DEBF0FBECDBFDF91CF91089502
:101A30008091AF020C9402228091AF028695869528
:101A4000869508958091AF0281FD07C082608093E2
:101A5000AF020E9402220C94A50E08958091AF025D
:101A600081FF07C08D7F8093AF020E9402220C94F9
:101A7000B10E08958091AF0281FD0C942E0D0C944F
:101A8000220D8091AF0286958170089580911C018E
:101A900008950E94D021811102C00E947D220E94DF
:101AA000FE218093AF02803320F08770886280939C
:101AB000AF029091AF02892F817090FF04C0892FEF
:101AC0008695869586950C947B0E8091AF02982F13
:101AD000969596959695953040F49F5F990F990F3E
:101AE000990F8770892B8093AF028091AF0281603C
:101AF0008093AF020E9402228091AF028695869564
:101B000086950C947B0E8091AF02982F987F79F088
:101B100088508093AF02887F91E009F490E0809133
:101B2000AF0290FB80F98093AF020E940222809165
:101B3000AF028695869586950C947B0E8091AF02B8
:101B400080FD13C081608093AF02813019F489E079
:101B50008093AF028091AF020E9402228091AF0277
:101B60008695869586950C947B0E08958091AF029C
:101B700080FF08C08E7F8093AF020E94022280E027
:101B80000C947B0E08958091AF0280FD0C94B60DED
:101B90000C949E0D9091AF02892F8695869586951F
:101BA0008F5F8F7197708630D8F4880F880F880FF9
:101BB000892B8093AF028091AF02887F91E009F476
:101BC00090E08091AF0290FB80F98093AF020E9479
:101BD00002228091AF028695869586950C947B0EA5
:101BE0009093AF02E8CF863008F085E09091AF0285
:101BF0009770282F220F220F220F922B9093AF0263
:101C0000987F21E009F420E09091AF0220FB90F949
:101C10009093AF020C947B0E0E94F30D8091AF0263
:101C20000C940222FC01DB0112968C918823F9F0BE
:101C3000EB5BFC45E730F105D8F4EC56F14D0C9424
:101C4000212E85E00E940C0E80E0089580E0FACFFE
:101C50000E94830DF9CF0E94650DF6CF0E94C30D3F
:101C6000F3CF0E94CA0DF0CF0E943A0DEDCF81E074
:101C70000895269A2E9A08952E9A0895CF92DF926B
:101C8000EF92FF928C3724E1920750F469E070E004
:101C90000E94B82DCB01FF90EF90DF90CF90089578
:101CA000B0E0A0E0BC01CD016A50774D8F4F9F4F4F
:101CB000982F872F762F662725EF38E241E050E0F6
:101CC0000E94E02D69017A01CA01B9010E94A82D84
:101CD0009B01AC01C701B6010E94A82D672F782F88
:101CE000892F99276115710521E08207910591F6E9
:101CF0006FEF7FEFCFCFCF93C82F8630F0F48111F5
:101D00001DC0809180008F7C809380000E943C0EDB
:101D10002C2F30E0AFEFBFEF0E942E2E25E030E0F9
:101D200040E050E00E94E02DC9010E943E0E9093D9
:101D30008B0080938A00CF910895C5E08091800048
:101D4000806380938000E4CF08951092D3011092B5
:101D5000D2011092D401EFE6F0E0808181608083AF
:101D60000895EFE6F0E080818E7F80830E941C0D55
:101D70000C947B0E1F920F920FB60F9211242F938B
:101D80003F934F935F936F937F938F939F93AF9303
:101D9000BF93CF93EF93FF930E94460D4091D201E2
:101DA0005091D3014F5F5F4F94EF899F90011124B1
:101DB000CA01B9010E94B82D9093D3018093D2013A
:101DC000B901660F672F661F770B71950E94B82DBA
:101DD0006F778091D401823041F4603451F4809166
:101DE0006F008E7F80936F0004C0813011F46F37D5
:101DF000B1F3E62FF0E0E452FD4FC4910E941C0DB8
:101E0000282F41E051E0C49FC001C59F900D1124CF
:101E100065E070E00E94B82D269FC001279F900DBD
:101E200011240E943E0E90938B0080938A00FF91B4
:101E3000EF91CF91BF91AF919F918F917F916F91D2
:101E40005F914F913F912F910F900FBE0F901F9078
:101E500018950E94390E82E38093800089E1809377
:101E600081008FEF9FEF90938700809386000E9400
:101E7000490D0E94410D81110C94A50E089582E236
:101E800090E00E94502E813289F483E290E00E941B
:101E9000502E833059F484E290E00E94502E91E05D
:101EA000833209F090E0892F8170089580E0FCCFA3
:101EB000CF93C82F6FEF811161E282E290E00E9420
:101EC0005E2E6FEFC11163E083E290E00E945E2E10
:101ED0006FEFC11163E284E290E0CF910C945E2E2B
:101EE00080E00E94580F0C94CA21089585E290E08A
:101EF0000E94502E682F70E090E080E0089585E207
:101F000090E00C945E2E0E94750F0E943F0F81118D
:101F10000CC060E070E0CB010E947F0F0E940611B0
:101F20000E94F21181E00C94580F0895CF93FB01A9
:101F3000C281CC2309F19C0122513F45203131055A
:101F400020F582510E940212C0E08C2FCF9108959B
:101F500081E00E94911F43E062E081E00E9417054A
:101F6000F3CF81E00E94B21F43E062E081E00E9473
:101F70001705EBCF82E0F6CF8031FFE59F0789F3AD
:101F800081319F45B9F3C1E0E0CF8031EFE59E0795
:101F9000F9F281319F45C9F682E0DBCF2FEFFC01DA
:101FA00020830895CF93DF93EC018881893029F055
:101FB0008A3079F0DF91CF9108950E941C0D2FEFA8
:101FC000829FC001112465E070E00E94B82D6983F2
:101FD000F1CF0E94410D8983EDCFFC0180818930D2
:101FE00019F08A3069F00895818125E0829FC0014F
:101FF00011246FEF70E00E94B82D862F0C94F30D22
:102000008181811102C00C942E0D0C94220DEF924F
:10201000FF920F931F93CF93DF93EC01062FDC0108
:10202000ED91CD01E150E33108F0ADC0F0E0E556AF
:10203000F14D0C94212E198289E08A83602FCE0104
:10204000DF91CF911F910F91FF90EF900C94FE24A0
:102050008981823069F0833071F08130D9F40E9437
:10206000D3230E94272E6A837B838C839D83E6CFB4
:102070000E94760FF6CF7E01B2E0EB0EF11C10E06D
:10208000812F0E94CE08F70181937F011F5F1830D6
:10209000B9F7D4CF602FCE010E94CE0FCFCF898168
:1020A0008230C1F76A817B818C819D810E94272EBD
:1020B0000E947F0FC3CF4B816A8189810E94D81013
:1020C0009827892798279D838C83B8CF2C813D81C1
:1020D0003227232732274B816A8189810E94F110A0
:1020E000ADCF0E940611AACF0E94ED0FA7CF0E948C
:1020F000D20FA4CF0E94180DA1CF0E949B118983FB
:102100009DCF0E949D119827892798279A838983BC
:1021100095CF6B8170E089819A81AE014C5F5F4FF2
:102120009827892798270E94A01188CF6B8170E09B
:1021300089819A81AE014C5F5F4F98278927982744
:102140000E94C7117BCF0E94F21178CF0E94C61067
:10215000D6CF6B8170E089819A81AE014C5F5F4F71
:102160009827892798270E943E1168CF6B8170E0DD
:1021700089819A81AE014C5F5F4F98278927982704
:102180000E9464115BCF8FEF888358CF84E008955D
:1021900050E0440F551F9CE0699F400D511D1124D4
:1021A00090E6899F400D511D1124CA01869608951D
:1021B0000F931F93CF93DF930E94C8108C010E944E
:1021C000502EC82FD0E0DC2FCC27C80101960E94EA
:1021D000502E9E01282BC901DF91CF911F910F91A5
:1021E00008950F931F93CF93DF93122F032F0E9415
:1021F000C810EC01602F0E945E2E612FCE01019667
:10220000DF91CF911F910F910C945E2EAF92BF92F0
:10221000CF92DF92EF92FF921F93CF93DF938CEADE
:10222000C82E80E0D82ED0E07601C0E014C0F501C1
:1022300025913491412F6C2F8D2F0E94F11082E057
:10224000A80EB11C1F5F163091F78CE0E80EF11C50
:10225000CF5FC83019F0570110E0E9CFDF5F80E6AB
:10226000C80ED11CD43001F7DF91CF911F91FF90A0
:10227000EF90DF90CF90BF90AF900895EF92FF92D4
:102280000F931F93CF93DF93EC018A017C01E60E3D
:10229000F71ECE018696CE15DF0539F4DF91CF917A
:1022A0001F910F91FF90EF900895C03821E0D20761
:1022B00040F40E94502EF80180830F5F1F4F21963B
:1022C000E8CFF8011082F9CFCF92DF92EF92FF9220
:1022D0000F931F93CF93DF937C016A018C01060F4C
:1022E000171FEC01CE018696C017D10749F4DF9184
:1022F000CF911F910F91FF90EF90DF90CF900895B5
:10230000C03821E0D20740F4FE01EE19FF09EC0DC0
:10231000FD1D60810E945E2E2196E4CF462F843001
:1023200038F4783028F4663018F4672F0C94D810FD
:1023300090E080E0089580E108958AE592E00895B4
:10234000EF92FF920F931F93CF93DF93EC018A01DB
:102350007C01E60EF71ECE018A559E4FCE15DF0595
:1023600039F4DF91CF911F910F91FF90EF90089575
:10237000CA3522E0D20740F40E94502EF801808333
:102380000F5F1F4F2196E7CFF8011082F9CFCF9250
:10239000DF92EF92FF920F931F93CF93DF937C0115
:1023A0006A018C01060F171FEC01CE018A559E4F62
:1023B000C017D10749F4DF91CF911F910F91FF9082
:1023C000EF90DF90CF900895CA3522E0D20740F415
:1023D000FE01EE19FF09EC0DFD1D60810E945E2ECD
:1023E0002196E3CFCF93DF93C6EAD1E060E0CE0140
:1023F0000E945E2E2196C11584E0D807B9F7DF91BF
:10240000CF910895DF92EF92FF920F931F93CF9396
:10241000DF9300D000D0CDB7DEB7F82E8FE08F1558
:1024200040F08FEF93E00E94502E06EA11E08823DF
:10243000C1F00F900F900F900F90DF91CF911F91EF
:102440000F91FF90EF90DF900895011584E0180739
:1024500081F3C8010E94502E811101C0FA940F5FD0
:102460001F4FF110F2CF19821A821B821C82DD24C9
:10247000D39478018FEFE81AF80AC8010E94502E11
:1024800089831A828823A9F29FEF980F933078F4FA
:102490008A83D9820E5F1F4FC7010E94502E8B8303
:1024A000882339F2CE0101960E946506E2CF8701AA
:1024B000F9CF0F931F93CF93DF93C42FD22FFC013B
:1024C00082818823C9F04093D7010E94C72390934B
:1024D000D6018093D50180E28C0F883008F050C07F
:1024E000C77081E001C0880FCA95EAF7DF91CF91EC
:1024F0001F910F910C9414191091D701141335C02A
:102500008091D5019091D6010E94DF23883C9105EE
:1025100060F5C0E2CD0F1D17B9F080E2810F883061
:1025200040F4177081E001C0880F1A95EAF70E9405
:102530001B19C83048F481E09D2F977001C0880FA7
:102540009A95EAF70E941419802F0E940C19C8303E
:10255000B8F4D77081E001C0880FDA95EAF7DF910F
:10256000CF911F910F910C941B1980E28C0F883032
:1025700038F4C77081E001C0880FCA95EAF7EFCF41
:10258000DF91CF911F910F9108950F939C01CB0183
:10259000233F4CE5340759F1A8F4283DFCE53F07FB
:1025A00001F1293D4CE53407D1F1273D3C4591F43B
:1025B00006E221EE41EE67ED7CE50E94591280E0D3
:1025C0000F910895253FFCE53F07E9F0B0F0263F65
:1025D0003C45F9F0FC018281882339F11092D70142
:1025E000EFCF07E225EE45EE68ED7CE5E6CF06E2AB
:1025F00021EE40EE63EF7CE5E0CF07E225EE44EE0E
:1026000064EF7CE5DACF06E221EE42EE65EF7CE591
:10261000D4CF07E225EE46EE66EF7CE5CECF08E2AA
:1026200021E045EE69ED7CE5C8CF81E0C9CFCF93CD
:10263000DF93EC01FB018281882309F419C1C230C8
:10264000FCE5DF07C0F1C6319CE5D90730F09E01FB
:102650002A5F3C452930310570F50E94E3219093B3
:10266000B5028093B402C031ECE5DE0709F4CFC0B7
:1026700008F05BC0C8308CE5D80709F4B6C088F50F
:10268000C430ECE5DE0709F4A8C0C0F4C2308CE524
:10269000D80709F49CC08091B4028260C330DC4545
:1026A00009F498C08091B4029091B5020E94F12182
:1026B0000E94971B80E0DF91CF9108958091B40232
:1026C0008061C630ECE5DE0709F484C08091B40275
:1026D0008860C730DC4508F47DC08091B402806218
:1026E00079C0CC308CE5D80709F489C070F48091AA
:1026F000B4028C60CA30ECE5DE0709F46BC008F464
:1027000078C08091B4028E7F65C0CE308CE5D8074A
:1027100009F479C08091B4028B7FCF30DC4508F496
:1027200059C08091B4028F7E55C0CB3FECE5DE07E7
:1027300009F457C030F5C3318CE5D80709F46FC0F0
:1027400078F4C131ECE5DE0709F465C0C231DC453F
:1027500009F0A8CF0E94971B8091B4028F773AC0EE
:10276000C5318CE5D80709F462C008F476C08091C1
:10277000B5028160CA3FDC4509F094CF8093B50271
:1027800091CFCF3FFCE5DF0709F44DC088F480917D
:10279000B5028D7FCD3F9CE5D90781F38091B502CD
:1027A0008E7FCE3FDC4550F38091B5028360E6CF4B
:1027B000C130FDE5DF0709F459C008F444C080E0EA
:1027C000C230DD4509F06ECF0E947F226BCF809131
:1027D000B40281608093B40265CF8091B4028460BA
:1027E000F9CF8091B5028260C9CF8091B402806434
:1027F000F1CF0E94971B8091B4028068EBCF80914B
:10280000B4028D7FE7CF8091B402877FE3CF8091C0
:10281000B4028F7DDFCF8091B4028F7BDBCF8091BC
:10282000B402837FD7CF8091B5028C7FA7CF8091F0
:10283000B40282FB992790F921E0922790FB82F95C
:1028400090FB83F9C7CF8091B502982F9095917036
:102850008E7F892B90FB81F991CF0E94971B9091DD
:10286000B402892F97FB87F98058B4CF81E0ACCFB1
:1028700081E021CFCF93DF93EB0186319C4511F5A9
:102880000E9419219A81992399F08A7A91E009F49A
:1028900090E09093D801811109C089E20E94F42050
:1028A0000E94652180E0DF91CF91089585E3F6CF06
:1028B0008091D801811104C089E20E94FB20F0CFF1
:1028C00085E3FBCF81E0EFCFFC01E850FD45E0322E
:1028D000F105E8F423E0F695E7952A95E1F7E7524C
:1028E000FE4F2081AC014770552781E090E001C088
:1028F000880F4A95EAF7DB0112963C91332349F0A1
:10290000822B80838091DF0182608093DF0181E0F0
:10291000089580958223F5CF0E946414882369F07E
:102920008091DF0181FF09C089ED91E00E94282597
:102930008091DF018D7F8093DF0181E00895E82F92
:10294000E295EF70F0E022A1482F4F7081A130E0B6
:10295000042E02C0359527950A94E2F7220F331F03
:102960002270332790E002C0959587954A95E2F74B
:1029700081709927822B932B0895E82FE295EF70B1
:10298000F0E092A18F7021E030E0082E01C0220F0C
:102990000A94EAF7209561FB442740F9082E01C00C
:1029A000440F0A94EAF79223942B92A391A16170A9
:1029B000772701C0660F8A95EAF72923622B61A366
:1029C00008952F923F924F925F926F927F928F92D3
:1029D0009F92AF92BF92CF92DF92EF92FF920F93AE
:1029E0001F93CF93DF9300D000D0CDB7DEB742E086
:1029F00051E05C834B8389EDE82E81E0F82E01E005
:102A000010E0EB81FC8181818F3F09F42FC10E948E
:102A10009F149A838983EB81FC819181E92FE29550
:102A2000EF70F0E022A19F70A80102C0440F551F73
:102A30009A95E2F7CA018095822382A3EB81FC81FB
:102A40008181E82FE295EF70F0E091A18F709801FD
:102A500001C0220F8A95EAF7892F822B81A3FAE120
:102A6000FA95F1F700C0EB81FC818081D12CC12C5B
:102A70008F3F29F10E949F146C01EB81FC818081C2
:102A8000E82FE295EF70F0E091A18F70980101C0FE
:102A9000220F8A95EAF7892F822B81A3EB81FC8193
:102AA0008081E82FE295EF70F0E092A18F7098019D
:102AB00001C0220F8A95EAF7892F822B82A3EB812E
:102AC000FC818281312C212C8F3F39F10E949F148F
:102AD0001C01EB81FC818281E82FE295EF70F0E030
:102AE00091A18F70980101C0220F8A95EAF7892F72
:102AF000822B81A3EB81FC819281E92FE295EF701B
:102B0000F0E022A19F70A80102C0440F551F9A95C2
:102B1000E2F7CA018095822382A35AE15A95F1F720
:102B200000C0EB81FC819181E92FE295EF70F0E02C
:102B300021A19F70A80102C0440F551F9A95E2F78A
:102B4000CA018095822381A3EB81FC819181E92FC9
:102B5000E295EF70F0E022A19F70A80102C0440F3F
:102B6000551F9A95E2F7CA018095822382A35AE104
:102B70005A95F1F700C0EB81FC8181810E94C71654
:102B8000EB81FC8145805680712C612C092E000C54
:102B9000AA0BBB0B4C015D0184189508A608B70869
:102BA000A1E8BFEFA50194010E944B2E238134813F
:102BB00050E040E024193509460957090E94022EC9
:102BC000121613061406150694F4AFE7B0E0A5013B
:102BD00094010E943D2EEB81FC812781308550E0DD
:102BE00040E024193509460957090E94022EDA01EE
:102BF000C9018138FFEF9F07AF07BF0724F481E8C1
:102C00009FEFAFEFBFEF80389105A105B10524F02C
:102C10008FE790E0A0E0B0E0F70142815381052EFC
:102C2000000C660B770B481759076A077B0739F0CA
:102C3000938382838091DF0182608093DF01EB8147
:102C4000FC8180818F3F19F0B6010E94BD14EB8199
:102C5000FC8182818F3F19F0B1010E94BD1469810E
:102C60007A81EB81FC8181810E94BD144B815C8162
:102C7000475F5F4F5C834B8352E0E50EF11C8B8115
:102C80009C818451914009F0BCCE81E00F900F905F
:102C90000F900F90DF91CF911F910F91FF90EF90C8
:102CA000DF90CF90BF90AF909F908F907F906F906C
:102CB0005F904F903F902F9008950C94E1140E94E4
:102CC0005D16882369F08091DF0181FF09C089EDDD
:102CD00091E00E9428258091DF018D7F8093DF01A4
:102CE0000895873901F178F48633F9F030F48433AC
:102CF000F1F08533F1F08FE108958439E1F0863900
:102D0000D1F781E20895843FC1F030F4803FB9F0FB
:102D1000813F89F781E00895863F99F0A0F0873FD1
:102D200051F787E0089582E2089585E2089583E2ED
:102D3000089584E2089580E2089584E0089580E093
:102D4000089586E0089585E0089595E890937A00C7
:102D5000982F9072906890937B008F7190911D01D5
:102D6000892B80937C0080917A00806480937A0024
:102D700080917A0086FDFCCF8091780020917900C7
:102D800090917A009F7790937A00922F08950E94F5
:102D900071160C94A5169093E5018093E4010895B3
:102DA000E091E401F091E501309721F00190F0818C
:102DB000E02D099480E00895E091E401F091E501AF
:102DC000309799F020912A01222359F02091B402E2
:102DD00027FF07C0DC012C9111962C93119725E059
:102DE0002C930280F381E02D09940895E091E40191
:102DF000F091E501309739F022E0DC012C9304805A
:102E0000F581E02D099408952091E2013091E301CC
:102E10002817390771F09093E3018093E201E09164
:102E2000E401F091E501309721F00680F781E02D73
:102E3000099408952091E0013091E10128173907A4
:102E400071F09093E1018093E001E091E401F09151
:102E5000E501309721F00084F185E02D0994089573
:102E60000E94D3236093F3017093F4018093F501E2
:102E70009093F6016093EF017093F0018093F1015C
:102E80009093F201089585B7806885BF85B7806803
:102E900085BF0895089508950C944A1708950C94D9
:102EA0004E170E94431788EC91E20E9423240E944F
:102EB0004B170C944C1781E008950C945B17089500
:102EC00008950E94BE230E94F4080E94830F0E946E
:102ED0003E240E94490D0E949D0C0C944F17AF9206
:102EE000BF92CF92DF92EF92FF920F931F93CF93F7
:102EF000DF93CDB7DEB72A970FB6F894DEBF0FBECB
:102F0000CDBF0E945F170E9460170E9422098111A5
:102F10000E94301787EEA82E81E0B82E10E000E066
:102F2000C02E802F0E94CE08E82EF501F1905F019F
:102F3000F81609F454C080917B0281FD0E94D408E8
:102F40008F2D8E25D12CFF24F394982F9F2109F4E7
:102F500041C00E945D17882399F0DE82CF82EF2066
:102F600081E009F480E088870E94C7238160782F80
:102F70009A8789874E815F8168858A850E941718A4
:102F8000F801E951FE4F8081F826F0820E94A40EDC
:102F90000E94450B0E942F040E945F160E94D016CB
:102FA0009091E601891791F10E94D0168093E60175
:102FB0002A960FB6F894DEBF0FBECDBFDF91CF913A
:102FC0001F910F91FF90EF90DF90CF90BF90AF9047
:102FD0000C94CA06D394FF0CF6E0DF12B6CF0F5F55
:102FE0001F4F0830110509F09BCF8FEF89838A832B
:102FF0001B820E94C7238160782F9D838C83498127
:103000005A816B818D810E941718C0CF2A960FB606
:10301000F894DEBF0FBECDBFDF91CF911F910F910E
:10302000FF90EF90DF90CF90BF90AF900895DF9228
:10303000EF92FF920F931F93CF93DF93CDB7DEB73D
:103040002B970FB6F894DEBF0FBECDBF7A878B8764
:10305000F42E052F162FE72ED82E61110E9439214C
:103060001E821D827E2DEC82DD824F2D502F612F1E
:103070008D2D9E812B960FB6F894DEBF0FBECDBF6F
:10308000DF91CF911F910F91FF90EF90DF900C9403
:103090000D1EFC01808191810C94C6200F931F931B
:1030A000CF93DF9300D000D000D0CDB7DEB7082F8C
:1030B000162F0E94D80C29834B835C836D837E83FB
:1030C000002399F0312B4981532F6B817C818D81B5
:1030D0009E8126960FB6F894DEBF0FBECDBFDF915E
:1030E000CF911F910F910C94F90C10953123EBCFD8
:1030F000CF93C82F882309F447C08CEF8C0F813AF7
:10310000A0F46C2F80911E0190911F010E949822C3
:10311000882329F08C2F0E94FB200E9465218C2F90
:103120000E94F420CF910C94652180E28C0F8830AE
:1031300048F4C77081E001C0880FCA95EAF70E9481
:103140001C21F0CFEBE5EC0FE33040F4F0E0E85663
:10315000FE4F808190E0CF910C940417E8E5EC0FCE
:10316000E73150F4F0E0EE0FFF1FE659FE4F80818B
:103170009181CF910C941A17C03F30F08C2F0E9490
:10318000570ACF910C942A0BCF910895882361F1AF
:103190009CEF980F913A20F40E94FB200C9465213B
:1031A00090E2980F983050F4877091E001C0990F29
:1031B0008A95EAF7892F0E942221F0CF9BE5980F8C
:1031C000933020F490E080E00C94041798E5980F79
:1031D000973120F490E080E00C941A17803F20F0A3
:1031E0000E94B10A0C942A0B08951F93CF93DF938A
:1031F000182FEB010E947818209731F4812FDF916E
:10320000CF911F910C94C6188FEC97E00197F1F7BE
:1032100000C000002197F0CF6AE070E0893311F41C
:1032200060E570E00C94F518882321F00E941C21C1
:103230000C9465210895882321F00E9422210C948A
:1032400065210895BF92CF92DF92EF92FF920F9384
:103250001F93CF93DF936C01D62FC72FFC011281F0
:10326000058102950F700E941221E82E8823A1F09B
:10327000E12E112389F08C2F807F803429F080E2A9
:103280008D0FE12C883040F082E00E94B0210E9436
:10329000122191E0E82EE926BC2EB2949FE0B922DB
:1032A000EB2DF0E0E255F14D0C94212E0C2F0F7018
:1032B000C07F11F00295007F1123A9F0002359F07F
:1032C00080E28D0F883010F0D11109C0802F0E944C
:1032D0001C210E9465218D2F0E94781814C0802F18
:1032E0000E942C21F6CF8D2F0E94C618002359F082
:1032F00080E28D0F883010F0D1112BC0802F0E94FA
:1033000022210E946521EB2DE850FF0B349720F419
:103310000E94D0160E94CA06EE2009F4A9C10E949C
:103320000E2180FDA5C1F60112820E9408210E9493
:10333000911FC6010E94591B0E940821DF91CF9165
:103340001F910F91FF90EF90DF90CF90BF900C9462
:10335000B21F802F0E943221D4CFFC2FFF70FF2E8E
:10336000C07FC03219F0F29480EFF822DD2369F0BB
:10337000D13049F1112391F1002351F1F6018581FA
:1033800080FFA9CF8F70858323C0112381F00111A5
:1033900006C00E944C218F290E941419B4CF01301D
:1033A000C1F70E944C218F290E945221ACCF0111FC
:1033B00006C00E945B218F2D0E941B19A4CF0130F3
:1033C00009F4A1CFF6CF112329F0063008F09BCFE6
:1033D0008F2DE2CF053008F096CFEDCF002359F3C3
:1033E000D93309F030C1FFEF23EF31E0F150204035
:1033F0003040E1F700C000008D2F0E94C61883CF37
:103400008C2F86958695837069F0813009F07BCF8B
:103410008D2F9C2F9370111102C090E080E00E94CC
:103420001A1771CF8D2F9C2F9370111102C090E04D
:1034300080E00E94041767CF8D2F112391F00E9426
:10344000570AED2FE45FFF0BE530F10568F461E00A
:1034500070E001C0660FEA95EAF7812F0E944E18CE
:1034600052CF0E94B10AEDCF0E942A0B4CCF8C2F75
:10347000837009F041C0111146CF4D2F42954695FA
:103480004770440F440F0D2F0F7010E030E020E024
:10349000042E04C0000F111F221F331F0A94D2F7FD
:1034A00060E070E0CB01D4FF0FC06FE070E080E01F
:1034B00090E004C0660F771F881F991F4A95D2F7C6
:1034C0006095709580959095C695C695C370602B54
:1034D000712B822B932BC23049F058F4C13019F074
:1034E0000E94431F10CF0E94311F0DCF0E94551F15
:1034F0000ACF0E942F1F07CF8695112311F08C2F22
:103500008170882309F4FFCE4D2F42954695477070
:10351000440F440F0D2F0F7010E030E020E0042E18
:1035200004C0000F111F221F331F0A94D2F760E05E
:1035300070E0CB01D4FF0FC06FE070E080E090E05E
:1035400004C0660F771F881F991F4A95D2F76095B0
:10355000709580959095C695C695C370602B712B1C
:10356000822B932BC23049F058F4C13019F00E94DD
:103570000820C9CE0E94F61FC6CE0E941A20C3CED4
:103580000E946B1FC0CECF70112329F08C2F0E9498
:10359000911F8D2F01CF8D2F0E941B198C2F0E9400
:1035A000B21FB1CED23F89F160F4D03FC9F0D13F14
:1035B00029F1112309F442C001118DCE8C2F8F7196
:1035C00021C0D33F39F1D43FA1F7112369F1CF7165
:1035D0008C2F0E94911F63E08C2F0E949B2193CE21
:1035E000112341F0053008F08ECE8C2F8F710E9490
:1035F000D51F89CE063008F086CEF7CF8C2F8F717D
:10360000112369F20E94911F7ECE8C2F8F7111239E
:10361000C9F3C5CF112329F08C2F8F710E947C1F15
:1036200072CE0E94771F6FCE81E00E94B0210230DF
:1036300008F469CE82E00E94B02165CE0111D0CE9F
:103640008C2F8F71ACCF8FE19EE40197F1F7D2CE32
:103650004C2F4F706D2FC6010E94D9030E94A71EE8
:1036600052CE4C2F4F706D2FC6010E94D2064BCE0A
:10367000DF91CF911F910F91FF90EF90DF90CF904E
:10368000BF9008950F931F93CF93DF93EC01688150
:1036900079818A810E94D0208C010E942C200E9476
:1036A0002E1FB801CE01DF91CF911F910F910C9485
:1036B0002219CF93DF93EC018B819C81892B29F018
:1036C0008881998189238F3F59F4DF91CF910895A3
:1036D000CE010E94421BCE01DF91CF910C94B80421
:1036E000CE010E9449058111F3CF0E941221882347
:1036F00061F38A81882349F382E0DF91CF910C94B2
:10370000B02190E080E00E94041790E080E00E94E9
:103710001A170E9439210E9449210E9465210E94A6
:10372000510C0C942A0B0E9402210C94811B0E94C4
:1037300029210C94931BE92FE295EF70E250EE30B3
:1037400070F4F0E0E254F14D0C94212E803F19F01A
:1037500020F4883E20F481E00895843FE1F380E086
:103760000895883EC0F3813FD1F7F5CF93FB8827BA
:1037700080F908950E94C6200C949B1BCF93DF9381
:1037800000D000D00F92CDB7DEB70F900F900F9002
:103790000F900F90DF91CF910895CF93DF9300D0DA
:1037A00000D000D0CDB7DEB726960FB6F894DEBFB6
:1037B0000FBECDBFDF91CF9108951F93CF93DF93BD
:1037C000C091F80116E08091F9018C1304C0DF91DB
:1037D000CF911F910895D0E01C9FF0011D9FF00D27
:1037E0001124E650FE4F40815181628173818481B2
:1037F00095810E94CD1B2196C770E5CF40912A028A
:1038000050912B0260912C0270912D0280912E021A
:1038100090912F020C94CD1B1F93CF93DF93809137
:103820002F02807FA9F480912C02882389F0809157
:10383000F801C091F90160912A0270912B02A091C8
:103840002D02B0912E02D62FD72316E0C81304C044
:10385000DF91CF911F91089590E0109711F0DF3F15
:1038600019F401968770F2CF189F9001199F300DBF
:103870001124F901E650FE4F41814713F2CF4081F8
:103880004613EFCF42814111ECCF438154814A1B53
:103890005B0B483C510528F780912F028F708061A7
:1038A00080932F02F901E150FE4F80818F7080617B
:1038B00080838AE292E00E94591BDF91CF911F9191
:1038C0000C94DD1BAF92BF92CF92DF92EF92FF92EA
:1038D0000F931F93CF93DF93CDB7DEB761970FB6EA
:1038E000F894DEBF0FBECDBF8C0185E0F801DE018C
:1038F0001D9601900D928A95E1F7F8014081518162
:10390000E2808AE2C82E82E0D82E60912D0270916A
:103910002E026115710509F461C190912A0220916E
:103920002B02892F82238F3F09F458C1A380B480D2
:10393000F0902C02F501E61BF70BFF2009F4FCC008
:1039400080912F02382F307FE83CF10508F0B2C09B
:10395000311179C0FE2C251323C0941321C0E1102E
:103960001FC08F70806180932F020E94FE1BC601D2
:103970000E94591B80912F02F80185838F2D61963B
:103980000FB6F894DEBF0FBECDBFDF91CF911F9170
:103990000F91FF90EF90DF90CF90BF90AF90089580
:1039A000AB2829F0842F85238F3F09F033C180E0B5
:1039B000F82FF170DF2E80FF3CC08091F80120913C
:1039C000F90136E0821315C04D875E878D859E858F
:1039D0000E94C620292F22952F702230F0F024302B
:1039E00018F59F70F1F0F8019581907FD1F4D12CFA
:1039F0001EC090E0389FF001399FF00D1124E65071
:103A0000FE4F6181651306C06081641303C062814B
:103A10006E110FC001968770D5CF9F7011F088236B
:103A200031F3805E883018F3C8010E94591BFD2CC9
:103A3000A5CFEE2009F4A2CF80912F028160809360
:103A40002F02F12C9BCF251306C0941304C0F8015C
:103A5000EE2009F48DC04D875E878D859E850E947E
:103A6000BA1B882319F1EE2009F180912F028032D0
:103A700070F020912A0230912B0238872F8319860B
:103A8000BB86AA868C87CE0107960E94591B86E0CA
:103A9000F801AAE2B2E001900D928A95E1F70E9446
:103AA0000C1C0E94FE1BFF24F39468CFC8010E94E7
:103AB000591BF9CF311113C07A2DB98AA88A6E2DFE
:103AC00089890E94BE1B8AE292E00E94591B86E00F
:103AD000F60111928A95E9F70E94FE1BB2CF2513D9
:103AE0000FC094130DC0E1100BC0F8018583C8010D
:103AF0000E94591B86E0F60111928A95E9F73ECFA4
:103B00004D875E878D859E850E94BA1B882371F242
:103B1000EE2061F280912F02803208F4B8CF20911C
:103B20002A0230912B023A8329831B82BD82AC8208
:103B30008E83CE010196A9CFE83CF10508F041C083
:103B4000FE2CEE2009F4B2CF25132AC0941328C00E
:103B500080912F0280FD1BC0982F907FC1F0F8014B
:103B60008583903F31F0982F907F905F8F70892BE5
:103B70008583C8010E94591B86E0F801AAE2B2E0E1
:103B800001900D928A95E1F70E94FE1BF7CE86E028
:103B9000F801AAE2B2E001900D928A95E1F7EECE2B
:103BA0004D875E878D859E850E94BA1B81116FCFE0
:103BB00080912F02816080932F02C8010E94591BBF
:103BC000DDCE7A2DB98AA88A6E2D89890E94BE1B06
:103BD00086E0F60111928A95E9F7D6CFEE2009F436
:103BE00065CF4D875E878D859E850E94BA1BF82E16
:103BF000882309F45BCF86E0F801AAE2B2E00190E5
:103C00000D928A95E1F78AE292E00E9449180E949B
:103C10000C1CBACF81E08E25CBCE1F93CF93DF93C0
:103C2000CDB7DEB72C970FB6F894DEBF0FBECDBF71
:103C30004F83588769877A878B879C87CE01079641
:103C40000E94621C882369F08A859B85892B39F044
:103C50004F815885842F85238F3F09F071C016E06E
:103C60005FC086E0FE013796DE01119601900D924D
:103C70008A95E1F78A859B85892B89F38F819885C1
:103C800089238F3F61F32091F90130E0C90101964A
:103C9000877099274091F8014817190671F40E941E
:103CA000971B1092F9011092F80186E0EAE2F2E027
:103CB000DF011D928A95E9F7D2CF96E0929FD0015D
:103CC000939FB00D1124A650BE4FFE013196019076
:103CD0000D929A95E1F78093F9010E94DD1BBFCF09
:103CE000819FC001112486509E4F0E94621C882330
:103CF000E9F0E091F8011E9FF0011124E650FE4F1B
:103D00004081518162817381848195810E94CD1BA4
:103D10008091F80190E00196877099278093F801CF
:103D20008091F8019091F9018913DACF2C960FB6A2
:103D3000F894DEBF0FBECDBFDF91CF911F910895E4
:103D400069857A858B859C850E94CD1B88CFEF92F3
:103D5000FF920F931F93CF93DF938C01892B81F0F8
:103D6000F12CEE24E394E8012196F8018491843744
:103D700070F4843008F05FC08130B1F08230A1F17E
:103D8000DF91CF911F910F91FF90EF9008958537AC
:103D900009F44CC008F43DC09CE7980F903780F7B9
:103DA0008F770E94C61849C00E5F1F4FFE01849195
:103DB00090E2980F983060F48770FE2D01C0FF0FDD
:103DC0008A95EAF78F2F0E943C210E94652102C04C
:103DD0000E9478188F2D815030F2EFECF7E0319788
:103DE000F1F700C00000F7CF0E5F1F4FFE01849176
:103DF00090E2980F983050F48770FE2D01C0FF0FAD
:103E00008A95EAF78F2F0E944221DFCF0E94C618C1
:103E1000E1CF0E5F1F4FFE01C491C150D8F28FEC6D
:103E200097E00197F1F700C00000F7CF0E5F1F4F3A
:103E3000FE01F490CFCF0E9478188E01CBCF089569
:103E40000C941F1F0E94201F609352027093530214
:103E500080935402909355020C94811B08950C9406
:103E6000221F0F931F930091520210915302209131
:103E7000540230915502602B712B822B932B1F9192
:103E80000F910C94221F0F931F93009152021091D7
:103E900053022091540230915502602371238223F2
:103EA00093231F910F910C94221F0F931F93009146
:103EB0005202109153022091540230915502602712
:103EC0007127822793271F910F910C94221F0C9426
:103ED0001F1F0C94671F0E94691F60934E0270930E
:103EE0004F0280935002909351020C94811B60E02A
:103EF00070E0CB010C946B1F0F931F9341E050E0D7
:103F000060E070E08A019B0104C0000F111F221FB6
:103F1000331F8A95D2F7C901B8011F910F910C94F4
:103F20006B1F0F931F9341E050E060E070E004C00E
:103F3000440F551F661F771F8A95D2F780914E0256
:103F400090914F02A0915002B09151028A019B01C1
:103F5000082B192B2A2B3B2BC901B8011F910F915C
:103F60000C946B1F0F931F9341E050E060E070E0F2
:103F700004C0440F551F661F771F8A95D2F7CB01E7
:103F8000BA01609570958095909500914E021091C0
:103F90004F022091500230915102602371238223FD
:103FA00093231F910F910C946B1F0F931F9341E06C
:103FB00050E060E070E004C0440F551F661F771F9B
:103FC0008A95D2F780914E0290914F02A0915002B3
:103FD000B09151028A019B01082719272A273B2704
:103FE000C901B8011F910F910C946B1F0F931F9380
:103FF00000914E0210914F022091500230915102D7
:10400000602B712B822B932B1F910F910C946B1FA4
:104010000F931F9300914E0210914F022091500276
:104020003091510260237123822393231F910F91BA
:104030000C946B1F0F931F9300914E0210914F022F
:1040400020915002309151026027712782279327D7
:104050001F910F910C946B1F0895E92FEE0FE90F3C
:10406000EE0F8E0F982F977041E001C0440F9A9584
:10407000EAF786958695869595E0899FF00111244B
:10408000E05DFD4F30E020E070E05191DF011197DD
:10409000CB01022E02C0969587950A94E2F78170B3
:1040A00081958527842385278C932F5F3F4F25306B
:1040B000310559F70895E92FEE0FE90FEE0F8E0F36
:1040C000982F977086958695869525E0829FF001BA
:1040D0001124E05DFD4F50E040E080E0219130E0B0
:1040E000092E02C0369527950A94E2F721703327EE
:1040F000042E01C0220F0A94EAF7822B4F5F5F4F14
:104100004530510559F70895BF92CF92DF92EF9253
:10411000FF920F931F93CF93DF938C01C0904E02B9
:10412000D0904F02E0905002F090510280915202E4
:1041300090915302A0915402B0915502C82AD92AF5
:10414000EA2AFB2ACFE1D0E0BC2ED701C6010C2E13
:1041500004C0B695A795979587950A94D2F780FDE8
:104160000EC0219788F7B12C8B2DDF91CF911F9135
:104170000F91FF90EF90DF90CF90BF900895B8011E
:104180008C2F0E94DB06019761F3EECFCF93DF9374
:10419000EC010E948420BE01DF91CF910C94DB06DC
:1041A0001F93CF93DF93EB019091F701992331F0A7
:1041B000CB01DF91CF911F910C94C620882379F019
:1041C000CB010E948420182F682FCE010E942D2041
:1041D000BE01812FDF91CF911F910C94DB06CB01A3
:1041E0000E945B20182FF4CF682F80911E019091C0
:1041F0001F010C941823682F80911E0190911F01BC
:104200000C94232380911E0190911F010C942E2366
:1042100080915602859585958595089580915602E1
:104220008770089590915602977081E009F480E0BC
:10423000089580917A02089590917A02892B809353
:104240007A020895809590917A02982390937A0249
:10425000089510927A02089590917902892B8093A3
:10426000790208958095909179029823909379022C
:10427000089510927902089590917802892B809385
:10428000780208958095909178029823909378020F
:104290000895109278020895809157020895089524
:1042A0000C944F2190915702981721F08093570258
:1042B0000C945021089580915702882329F0109280
:1042C000570280E00C9450210895E0911E01F09176
:1042D0001F0180917A028083E0911E01F0911F01FD
:1042E000808190917902892B8083E0911E01F09169
:1042F0001F01808190917802892B808390915702D1
:10430000992381F0E0911E01F0911F018081892B9A
:10431000808380911E0190911F010E94842281114F
:104320000E945B2180911E0190911F010C94DC166C
:1043300008950C94982198E0899F90011124622B94
:10434000609356020E94911F809156028595859533
:1043500085950C9499211092560280E00C94992135
:10436000909156028095892380935602282F2770BA
:1043700071F4282F082E000C330B9217130639F016
:104380008595859585950E94B21F0C94AB21089563
:1043900080E008956FEF7FEF90E080E00C947C2E3A
:1043A00090E080E00E94582E21E08B3E9E4F09F065
:1043B00020E0822F089582E090E00C94502E83E05C
:1043C00090E00C94502ECF9384E090E00E94502E09
:1043D000C82F81E290E00E94502E982F8C2FCF9111
:1043E0000895CF93C92F682F84E090E00E945E2E3D
:1043F0006C2F81E290E0CF910C945E2E86E090E0ED
:104400000C94502E682F86E090E00C945E2EAB0149
:10441000BC018FE090E00C94702EAB01BC0183E1F5
:1044200090E00C94702E60E070E0CB010C940D22B3
:1044300060E070E0CB010E9407220C9413226BEE27
:104440007EEF90E080E00E947C2E60E082E090E0D1
:104450000E945E2E60E083E090E00E945E2E10924B
:10446000520210925302109254021092550260E0D0
:1044700084E090E00E945E2E60E081E290E00E9485
:104480005E2E60E085E090E00E945E2E60E086E0B7
:1044900090E00E945E2E6FEF87E090E00E945E2E1B
:1044A00040E050E0BA0188E090E00E94702E60E0A9
:1044B0008DE090E00E945E2E40E050E0BA0188E17D
:1044C00090E00E94702E60E087E190E00E945E2EF6
:1044D00040E050E0BA018CE190E00E94702E60E074
:1044E00080E290E00E945E2E40E050E0BA0188E158
:1044F00090E00E94702E0C9418220C941F22682FBA
:104500008EE090E00C945E2EFC01329680912A01A0
:10451000882321F08091B4029EE187FF96E080E03D
:10452000915008F4089521912223D1F38F5FF8CFA1
:10453000662301F120912A012223F1F02091B40297
:1045400027FF1AC0462F4695469546954E3190F462
:10455000677021E030E002C0220F331F6A95E2F756
:10456000840F911DFC01828190E02823392381E092
:10457000232B69F480E00895FC013296089621917E
:10458000261721F0E817F907D1F7F4CF81E0089555
:104590009C01FC0132969FEF80E04191461751F05B
:1045A0009F3F19F4411101C0982F8F5F8630A9F702
:1045B0009F3F09F40895290F311D97FD3A95F901A0
:1045C00062830895FC01329608962191261303C058
:1045D000DF0111971C92E817F907B9F70895E62F44
:1045E000E695E695E695EE3168F4E80FF92FF11DB2
:1045F000677021E030E001C0220F6A95EAF78281FE
:10460000822B82830895E62FE695E695E695EE31B6
:1046100070F4E80FF92FF11D677021E030E001C060
:10462000220F6A95EAF72095828128232283089534
:1046300020912A01222329F02091B40227FD0C9415
:10464000EF220C94C82220912A01222329F02091E4
:10465000B40227FD0C9403230C94E222FC01329651
:1046600080912A01882351F08091B40287FF06C00F
:104670008EE1DF011D928A95E9F7089586E0F9CF72
:10468000089508950C9441238091BA02843061F119
:104690000E94422380E00E947B0E80E00E94CA06B6
:1046A00010927C0288E190E020E40FB6F894A8957F
:1046B000809360000FBE2093600083B7817F846089
:1046C00083BF83B7816083BF7894889583B78E7FDB
:1046D00083BF0FB6F894A89580916000886180939D
:1046E0006000109260000FBE08950895CF930E945D
:1046F00040230E9422090E947523C0E08C2F0E9453
:10470000CE08811105C0CF5FC830C1F7CF910895A1
:1047100081E0FCCF08950C948A230E94971B0E948D
:10472000490D0E94D0160E94CA060C948B231F923A
:104730001FB61F9211248F939F93AF93BF938091C5
:104740007C02811113C08091B0029091B102A091BE
:10475000B202B091B3024196A11DB11D8093B00287
:104760009093B102A093B202B093B302BF91AF9104
:104770009F918F911F901FBE1F90189582E084BD5E
:1047800093E095BD9DE797BD80936E0008952FB788
:10479000F8948091B0029091B102A091B202B091D0
:1047A000B3022FBF08952FB7F8946091B0027091B3
:1047B000B1028091B2029091B3022FBF08959C0183
:1047C0004FB7F8948091B0029091B102A091B202DB
:1047D000B091B3024FBF821B930B089578941F9240
:1047E0001FB61F9211248F939F93AF93BF93809115
:1047F000B0029091B102A091B202B091B3020196C1
:10480000A11DB11D8093B0029093B102A093B2029A
:10481000B093B302BF91AF919F918F911F901FBE34
:104820001F90189587E797E79093010880930008F9
:1048300088E19AE00FB6F894A895809360000FBEC7
:1048400090936000FFCF9093B1018093B0010895E1
:104850000C94700F0E9422098FE19EE40197F1F7FA
:1048600000C000000E94220980E00E94CE0880FF64
:1048700004C00E9428240C94122408950E94D02180
:10488000811102C00E947D220E94DB2180937B0265
:104890000E94E3219093B5028093B4020E94DF212D
:1048A000682F70E090E080E00E942F1F60914E0220
:1048B00070914F0280915002909151020C94691FA7
:1048C00080919D020895CF93DF9300D00F92CDB7D2
:1048D000DEB79091BA02943011F589837B836A83A5
:1048E0009093E9008FEF9091E800815095FD06C00C
:1048F0009AE69A95F1F700C08111F5CF8091E80012
:1049000085FF0DC050E040E063E070E0CE0101960D
:104910000E9428278091E8008E778093E8000F900E
:104920000F900F90DF91CF910895BC0184E00C941B
:104930006324BC0183E00C9463249C0184E0809395
:10494000E9009FEF8091E800915085FD06C08AE65E
:104950008A95F1F700C09111F5CF8091E80085FFAD
:104960000CC050E040E066E070E0C9010E942827DA
:104970008091E8008E778093E8000895CF93DF93CD
:10498000EC0180912A018823B1F18091B40287FF64
:1049900032C060E284E08093E9008FEF9091E800FC
:1049A000815095FD06C09AE69A95F1F700C08111F5
:1049B000F5CF8091E80085FF1BC080912A0170E04F
:1049C00050E040E0811104C050E040E068E070E059
:1049D000CE010E9428278091E8008E778093E8001E
:1049E00080E2FE01ADE7B2E001900D928A95E1F719
:1049F000DF91CF91089568E081E0CDCFCF93FC01A6
:104A0000603221F58091BA02843001F5C091E9004D
:104A1000CF702091EC00922F917020FD90E8C92B6F
:104A200082E08093E9008091E80080FF0CC050E0B4
:104A300040E060E270E0CF010E9428278091E8000A
:104A40008E778093E800CF70C093E900CF910895EE
:104A5000CF93DF9300D00F92CDB7DEB7FC018281F8
:104A6000898384818A8380818B8385E08093E900B8
:104A70008FEF9091E800815095FD06C09AE69A95D7
:104A8000F1F700C08111F5CF8091E80085FF0DC0DE
:104A900050E040E063E070E0CE0101960E942827DC
:104AA0008091E8008E778093E8000F900F900F9030
:104AB000DF91CF9108958091B902811109C00E94C0
:104AC00007290E9464298091E20084608093E200BB
:104AD00008951092B902089508950895089542E046
:104AE00061EC81E00E94832842E261EC84E00E9454
:104AF000832842E261EC82E00E94832842E260EC7B
:104B000083E00E94832842E061EC85E00C948328D6
:104B10008091BC02833009F461C030F48130D1F15E
:104B2000823009F49DC008958A3009F489C08B3021
:104B300009F46FC0893009F050C08091BB02813206
:104B400009F04BC08091BF029091C002009719F00C
:104B5000029709F042C08091E800877F8093E800C7
:104B60008091E80082FF35C09091F3008091F200BF
:104B7000029729F48091F1008B7F813021F480919C
:104B8000F10080939D028091E8008B778093E8008C
:104B90000C94B7288091BB02813AF9F48091E80027
:104BA000877F8093E8008091BF029091C002892B9B
:104BB00061F460E28DE792E070E00E94C627809188
:104BC000E8008B778093E800089560E090E080E053
:104BD000F3CF8091BA028111C3CF08958091BB02B7
:104BE000813AD9F78091BF029091C002892BA9F731
:104BF0008091E800877F8093E8008091E80080FF43
:104C0000FCCF80912A018093F1008091E8008E779B
:104C1000BDCF8091BB02813201F78091BF0290919C
:104C2000C002892BD1F68091E800877F8093E8004D
:104C30000E94B7288091BD0280932A010C94971B93
:104C40008091BB02813249F68091E800877F809392
:104C5000E8000E94B7288091BE0280939E020895CA
:104C60008091BB02813A09F0B8CF8091E800877F3C
:104C70008093E8008091E80080FFFCCF80919E0245
:104C8000C2CFCDB7DEB7A0970FB6F894DEBF0FBE88
:104C9000CDBF84B7877F84BF0FB6F894A895809165
:104CA0006000886180936000109260000FBE80E811
:104CB00090E00FB6F89480936100909361000FBE6E
:104CC0000E9451170E9407290E9464298091E200E6
:104CD00084608093E20078940E94EA2B0E9461171E
:104CE00080E291E00E94CB1613E08091BA028530F9
:104CF000C9F00E946F178091BA028430D1F00E94EF
:104D00005F170E946017F1CF0E9444238091B80280
:104D1000882341F00E947623882321F00E941327E4
:104D20000E94971B8091BA02853071F30E948D23F7
:104D3000E0CF1093E9008091E80082FFE0CF8091FE
:104D4000E80090E085FF09C050E040E060E270E0DC
:104D5000CE0101960E94772791E08091E8008B7741
:104D60008093E800992359F260E2CE0101960E94F7
:104D70000710C5CF0C94BC26292F332723303105CB
:104D800021F168F42130310509F443C022303105A6
:104D900009F444C090E080E030E020E026C02132F9
:104DA000310551F122323105A9F76430710590F7D0
:104DB000FB01EE0FFF1FE156FE4F2081318165564A
:104DC0007E4FFB01808190E010C0992781309105D2
:104DD00081F0009729F00297E9F6ECE5F3E002C0D4
:104DE000EEE7F3E0849190E09F01FA0131832083A4
:104DF0000895EAE6F3E0F6CF6430710558F6660FE1
:104E0000771FFB01E955FE4F2081318189E090E059
:104E1000ECCF82E190E026EF33E0E7CF84E790E04B
:104E200022E833E0E2CF19BC82E089BD09B400FE7C
:104E3000FDCF8091D8008F7D8093D8008091E000D5
:104E400082608093E0008091E00081FDFCCF0895B6
:104E5000AF92BF92CF92DF92FF920F931F93CF93A7
:104E6000DF936C01EB018A010E94D628F82E811194
:104E700023C00115110539F0F80180819181C81B0B
:104E8000D90BC80ED91EB12CA12C2097A9F0809166
:104E9000E80085FD22C08091E8008E778093E800CD
:104EA00001151105A1F0F80180819181A80EB91EAC
:104EB000B182A08285E0F82E8F2DDF91CF911F91D6
:104EC0000F91FF90DF90CF90BF90AF9008950E9418
:104ED000D6288823D1F2F82EEFCFF60181916F0109
:104EE0008093F1002197FFEFAF1ABF0ACECFAF92A8
:104EF000BF92CF92DF92FF920F931F93CF93DF93D6
:104F00006C01EB018A010E94D628F82E811123C082
:104F10000115110539F0F80180819181C81BD90B69
:104F2000C80ED91EB12CA12C2097A9F08091E800C1
:104F300085FD22C08091E8008B778093E800011501
:104F40001105A1F0F80180819181A80EB91EB182EE
:104F5000A08285E0F82E8F2DDF91CF911F910F91C8
:104F6000FF90DF90CF90BF90AF9008950E94D62819
:104F70008823D1F2F82EEFCF8091F100F6018193D2
:104F80006F012197FFEFAF1ABF0ACECFFC018091CE
:104F9000C1029091C20286179707A0F061157105B2
:104FA00029F49091E8009E779093E80090E06115D5
:104FB000710551F4911108C08091E80082FF34C05E
:104FC00080E00895BC01F2CF8091BA028823C1F13C
:104FD0008530C1F18091E80083FD30C08091E80008
:104FE00082FDEACF8091E80080FFE1CF8091F3005D
:104FF0002091F200382F6115710519F02830310524
:1050000058F091E02830310509F090E02091E80057
:105010002E772093E800CBCF81918093F1006150EF
:1050200071092F5F3F4FE7CF8091BA02882341F08B
:10503000853041F08091E80083FFBECF81E0089584
:1050400082E0089583E00895FC018091C10290916F
:10505000C20286179707A0F06115710529F48091A7
:10506000E8008E778093E80090E06115710551F4B7
:10507000911108C08091E80082FF35C080E008955A
:10508000BC01F2CF8091BA028823C9F18530C9F101
:105090008091E80083FD31C08091E80082FDEACF75
:1050A0008091E80080FFE1CF8091F3002091F20031
:1050B000382F6115710519F02830310558F091E04D
:1050C0002830310509F090E08091E8008E778093D8
:1050D000E800CBCF84918093F10031966150710943
:1050E0002F5F3F4FE6CF8091BA02882341F0853091
:1050F00041F08091E80083FFBDCF81E0089582E018
:10510000089583E00895982F973028F08F7080934A
:10511000E90081E008959093E900242F762F50E074
:10512000981731F07091EC002091ED005091F00053
:1051300021FD02C09F5FE8CF3091EB003E7F3093AE
:10514000EB003091ED003D7F3093ED003091EB00AE
:1051500031603093EB007093EC002093ED0050939E
:10516000F0002091EE0027FDE5CF80E008958091CA
:10517000BB0287FF13C08091E80082FF06C08091C8
:10518000E8008B778093E80004C08091BA02811117
:10519000F2CF08958091BA028823D9F38091E80074
:1051A00080FFF8CF8091E8008E77ECCF2091E4006B
:1051B0003091E50095E6A9012091EC00822F8170E5
:1051C00020FF06C08091E80080FF06C080E00895BF
:1051D0002091E80022FD1AC08091BA02882389F04C
:1051E000853089F08091EB0085FD0FC02091E400AF
:1051F0003091E50042175307F9F29150E1F684E04F
:10520000089582E0089583E0089581E008950E9462
:1052100075290E947D29E0EEF0E080818160808325
:10522000E8EDF0E080818F77808319BCA7EDB0E0D6
:105230008C918E7F8C9380818F7E80831092B902B7
:1052400008950F931F93CF93DF930E9475290E94B7
:105250007D29C8EDD0E088818F7788838881806838
:10526000888388818F7D888319BC1092BA0210923E
:10527000B6021092B8021092B70200EE10E0F801E8
:1052800080818B7F808388818160888342E060E0B9
:1052900080E00E948328E1EEF0E080818E7F8083B1
:1052A000E2EEF0E08081816080838081886080838D
:1052B000F80180818E7F8083888180618883DF917F
:1052C000CF911F910F910895E8EDF0E080818F7EDE
:1052D0008083E7EDF0E080818160808384E082BF9D
:1052E00081E08093B9020C942129E8EDF0E08081FF
:1052F0008E7F80831092E20008951092DA0010925F
:10530000E10008951F920F920FB60F9211242F9370
:105310003F934F935F936F937F938F939F93AF933D
:10532000BF93EF93FF938091E10082FF0BC08091C8
:10533000E20082FF07C08091E1008B7F8093E10053
:105340000E94E92B8091DA0080FF18C08091D8007C
:1053500080FF14C08091DA008E7F8093DA00809104
:10536000D90019BC80FF93C082E089BD09B400FE5A
:10537000FDCF81E08093BA020E945B258091E1001D
:1053800080FF19C08091E20080FF15C08091E2008B
:105390008E7F8093E2008091E20080618093E20042
:1053A0008091D80080628093D80019BC85E08093FA
:1053B000BA020E946D258091E10084FF2AC080918D
:1053C000E20084FF26C019BC82E089BD89B5982F10
:1053D000917080FFFBCF8091D8008F7D8093D800A3
:1053E0008091E1008F7E8093E1008091E2008F7ECA
:1053F0008093E2008091E20081608093E2008091DE
:10540000B602882309F448C084E08093BA020E945F
:105410006E258091E10083FF29C08091E20083FF27
:1054200025C08091E100877F8093E10082E0809336
:10543000BA021092B6028091E1008E7F8093E10063
:105440008091E2008E7F8093E2008091E200806193
:105450008093E20042E060E080E00E948328809137
:10546000F00088608093F0000E946C25FF91EF911E
:10547000BF91AF919F918F917F916F915F914F916C
:105480003F912F910F900FBE0F901F901895109283
:10549000BA020E94692572CF8091E30087FD93E0F4
:1054A0009093BA02B4CF1F920F920FB60F921124AD
:1054B0002F933F934F935F936F937F938F939F931C
:1054C000AF93BF93CF93DF93EF93FF93D091E90016
:1054D000DF708091EC00C82FC17080FDC0E8109291
:1054E000E9008091F000877F8093F00078940E941B
:1054F000972A1092E9008091F00088608093F00074
:10550000CD2BCF70C093E900FF91EF91DF91CF9148
:10551000BF91AF919F918F917F916F915F914F91CB
:105520003F912F910F900FBE0F901F9018951F93D2
:10553000CF93DF93CDB7DEB7AA970FB6F894DEBF4F
:105540000FBECDBF8BEB92E02091F100FC012193C7
:10555000CF01F2E0833C9F07B9F70E948825809134
:10556000E80083FF1EC18091BB029091BC029A307B
:1055700008F017C1E92FF0E0E453F14D0C94212E0F
:10558000803899F0823809F00CC18091BF028F7089
:10559000873008F006C18093E9008091EB0085FB1D
:1055A000882780F91092E90006C08091B702909197
:1055B000B802911182609091E800977F9093E80083
:1055C0008093F1001092F1008091E8008E77E5C0A1
:1055D000882309F4D3C0823009F0E3C08091BD0272
:1055E0008111D6C08091BF028F702FEF280F263017
:1055F00008F0D7C08093E9002091EB0020FFC8C0DD
:10560000933031F48091EB0080628093EB00C0C056
:105610009091EB0090619093EB0021E030E001C0AD
:10562000220F8A95EAF72093EA001092EA0080910F
:10563000EB008860EACF8111B4C01091BD021F77E2
:105640008091E3008078812B8093E3008091E800D3
:10565000877F8093E8000E94B7288091E80080FF50
:10566000FCCF8091E30080688093E30082E0111119
:1056700083E08093BA0295C08058823008F091C0D0
:105680008091BD029091BE028C3D23E09207A1F56E
:1056900083E08A838AE289834FB7F894DE01139608
:1056A00020E03EE051E2E32FF0E050935700E49118
:1056B00020FF03C0E295EF703F5FEF708E2F90E008
:1056C000EA30C0F0C7968D939D932F5F243159F730
:1056D0004FBF8091E800877F8093E8006AE270E026
:1056E000CE0101960E94C6278091E8008B778093B7
:1056F000E80057C0C096E7CF6091BF027091C0022A
:10570000AE014F5F5F4F0E94BA26BC01892B09F49E
:1057100048C09091E800977F9093E80089819A8132
:105720000E942428E1CF8038E1F58091E800877F4E
:105730008093E8008091B6028093F10045CF8111FB
:1057400030C09091BD02923060F58091E800877F73
:105750008093E8009093B6020E94B7288091B60229
:10576000882311F084E005C08091E30087FDFACF23
:1057700081E08093BA020E946F2513C08091BD0220
:10578000813079F481E0933009F080E08093B802B1
:105790001092E9008091E800877F8093E8000E94E2
:1057A000B7288091E80083FF0AC08091E800877FD6
:1057B0008093E8008091EB0080628093EB00AA96D2
:1057C0000FB6F894DEBF0FBECDBFDF91CF911F9112
:1057D00008950895CF938091BA028823A1F0C091D3
:1057E000E900CF709091EC00892F817090FD80E8E6
:1057F000C82B1092E9008091E80083FD0E94972A4F
:10580000CF70C093E900CF9108950E94192C0C9499
:10581000012D0E94FA2C58F00E94F32C40F029F43C
:105820005F3F29F00C94EA2C51110C94352D0C9407
:10583000F02C0E94122D68F39923B1F3552391F3B4
:10584000951B550BBB27AA2762177307840738F0EF
:105850009F5F5F4F220F331F441FAA1FA9F335D04C
:105860000E2E3AF0E0E832D091505040E695001C00
:10587000CAF72BD0FE2F29D0660F771F881FBB1FBA
:10588000261737074807AB07B0E809F0BB0B802D98
:10589000BF01FF2793585F4F3AF09E3F510578F0C4
:1058A0000C94EA2C0C94352D5F3FE4F3983ED4F32E
:1058B000869577956795B795F7959F5FC9F7880F98
:1058C000911D9695879597F90895E1E0660F771FEA
:1058D000881FBB1F621773078407BA0720F0621B7B
:1058E000730B840BBA0BEE1F88F7E09508950E94A6
:1058F0007E2C6894B1110C94352D08950E941A2DB8
:1059000088F09F5798F0B92F9927B751B0F0E1F080
:10591000660F771F881F991F1AF0BA95C9F714C030
:10592000B13091F00E94342DB1E008950C94342DE3
:10593000672F782F8827B85F39F0B93FCCF3869569
:1059400077956795B395D9F73EF4909580957095C6
:1059500061957F4F8F4F9F4F0895E89409C097FB43
:105960003EF490958095709561957F4F8F4F9F4F36
:105970009923A9F0F92F96E9BB279395F69587957A
:1059800077956795B795F111F8CFFAF4BB0F11F43D
:1059900060FF1BC06F5F7F4F8F4F9F4F16C08823E4
:1059A00011F096E911C0772321F09EE8872F762F1A
:1059B00005C0662371F096E8862F70E060E02AF05B
:1059C0009A95660F771F881FDAF7880F9695879547
:1059D00097F9089597F99F6780E870E060E008956F
:1059E0009FEF80EC089500240A94161617061806F7
:1059F0000906089500240A941216130614060506D3
:105A00000895092E0394000C11F4882352F0BB0F63
:105A100040F4BF2B11F460FF04C06F5F7F4F8F4FC6
:105A20009F4F089557FD9058440F551F59F05F3F01
:105A300071F04795880F97FB991F61F09F3F79F0B0
:105A400087950895121613061406551FF2CF469532
:105A5000F1DF08C0161617061806991FF1CF8695B4
:105A60007105610508940895E894BB276627772798
:105A7000CB0197F908950E944E2D0C94012D0E94A0
:105A8000F32C38F00E94FA2C20F0952311F00C949E
:105A9000EA2C0C94F02C11240C94352D0E94122D1C
:105AA00070F3959FC1F3950F50E0551F629FF00171
:105AB000729FBB27F00DB11D639FAA27F00DB11D8A
:105AC000AA1F649F6627B00DA11D661F829F222713
:105AD000B00DA11D621F739FB00DA11D621F839F9A
