:100000000C942C020C9473020C9473020C947302E3
:100010000C9473020C9473020C9473020C9473028C
:100020000C9473020C9473020C947E230C9452244F
:100030000C94441E0C9473020C9473020C9473027F
:100040000C9473020C9473020C9473020C9473025C
:100050000C946F0C0C949B1E0C9473020C94730202
:100060000C9473020C9473020C9473020C9473023C
:100070000C9473020C9473020C9473020C9473022C
:100080000C9473020C9473020C9473020C9473021C
:100090000C9473020C9473020C9473020C9473020C
:1000A0000C9473020C9473020C94730229001400D4
:1000B0001A000800150017002B00040016000700A6
:1000C00009000A00E10000001D001B0006001900E5
:1000D000E000E3001350E20000002C004F0051004C
:1000E0005000025101510000E5005200390010009B
:1000F00011000500280000000F000E000D000B008D
:100100002A00130012000C0018001C0035001E000D
:100110001F00200021002200010049004A004B007E
:100120002D002E00010000004C004D004E0001008B
:1001300001000100010001000000010001000100B8
:100140000100010001000000010001000100380071
:1001500037003600010000003400330030002F006B
:100160003100270026002500240023003A003B0030
:100170003C003D003E003F00C25CBD5CBE5CBF5C1D
:10018000BC5CC05C01000000460047004800010064
:1001900001000100010001000000005CF200F3001A
:1001A000F1000100010000000100F900FA00A900BF
:1001B000AA00A800010000000100BD00BE0001006F
:1001C00045004400430042004100400000000000A0
:1001D000000000000000000000000000000000001F
:1001E000000000000000000000000000000000000F
:1001F0000000000010500000000000000B5D0A5DD0
:10020000095D0000000000000E5D0D5D0C5D00004A
:1002100000000000000000000000000000000000DE
:10022000105D0F5D000000000000000000000000F5
:100230000000000000000001010203040506080A96
:100240000C0F1114181C2024292E33393F464C530F
:100250005B626A7179818A929AA2AAB2B9C1C8CF47
:10026000D5DCE1E7EBF0F4F7FAFCFDFEFFFEFDFC68
:10027000FAF7F4F0EBE7E1DCD5CFC8C1B9B2AAA236
:100280009A928A8179716A625B534C463F39332E68
:100290002924201C1814110F0C0A08060504030257
:1002A0000101000000000000000000000C034500F8
:1002B0006E006A006F007900000012034C006500B8
:1002C0006F002000440065006E006700000004031A
:1002D000090409025400030100A0FA090400000106
:1002E00003010100092111010001224000070581DD
:1002F0000308000A0904010001030000000921119C
:1003000001000122B6000705820320000A09040249
:10031000000103000000092111010001222A000749
:1003200005830308000A120110010000000829DEFD
:10033000087302000102000105010904A101A100E6
:100340000501093009311581257F95027508810263
:100350000509190129081500250195087501810273
:10036000C0C005010902A10185020901A10005091A
:10037000190129081500250195087501810205015B
:10038000093009311581257F9502750881060938E4
:100390001581257F950175088106050C0A3802151F
:1003A00081257F950175088106C0C005010980A1DE
:1003B00001850319012AB700150126B700950175BB
:1003C000108100C0050C0901A101850419012AA0B2
:1003D00002150126A002950175108100C0050109D2
:1003E00006A1018505050719E029E71500250195F6
:1003F00008750181020507190029EF1500250195EF
:10040000F07501810205081901290595057501910D
:1004100002950175039101C005010906A1010507B7
:1004200019E029E71500250195087501810295015C
:10043000750881010507190029FF150026FF0095A1
:1004400006750881000508190129059505750191B2
:1004500002950175039101C011241FBECFEFDAE0B0
:10046000DEBFCDBF04B603FE27C08091BB029091D2
:10047000BC02A091BD02B091BE028730904BA74054
:10048000B04BD1F41092BB021092BC021092BD028C
:100490001092BE0214BE84B7877F84BF0FB6F89453
:1004A000A895809160008861809360001092600040
:1004B0000FBEE0E0F8E3099511E0A0E0B1E0E6E767
:1004C000F1E502C005900D92AA3AB107D9F722E0F2
:1004D000AAEAB1E001C01D92AB3BB207E1F70E946E
:1004E000B9200C948A280C940000CF930E946211CA
:1004F000811522E0920781F1811522E0920744F5EF
:1005000060E072E0681B790BC1E0072E000C880BDD
:10051000990B0E94AE2620E030E84FEF53E40E9492
:10052000042620E030E04EEF52E40E943A270E9479
:1005300076269B0177FD10C0C69F802D11242038A0
:10054000310524F08FE7C89F802D1124CF910895A5
:10055000BC017250CFEFD9CF80E0F8CFCF92DF92BD
:10056000EF92FF92CF930E947502C82F082E000CC5
:10057000990B009749F197FF03C0919581959109D7
:10058000BC01990F880B990B0E94AE266B017C0170
:100590006C2FCC0F770B880B990B0E94AE269B011A
:1005A000AC01C701B6010E943A2720E030E04AE7DB
:1005B00054E40E9404260E947626862FCF91FF9055
:1005C000EF90DF90CF90089580E0F8CF90E080E04A
:1005D0000895089560914602709147028091480203
:1005E000909149020E941C048330C9F484EF0E9458
:1005F0007502082E000C990B9093D4018093D301BF
:1006000085EF0E947502082E000C990B9093D6017D
:100610008093D5018091D70182608093D70108959E
:1006200081FF03C0229A2A9808952298FCCFCF9385
:10063000DF9300D000D000D0CDB7DEB76091460286
:100640007091470280914802909149020E941C04D7
:10065000833098F50E94910A29833A834B835C8307
:100660006D837E838091AC019091AD010E948C1EC0
:10067000209100012817190670F40E94741E9093AF
:10068000AD018093AC0184EF0E94AE028B8385EFB5
:100690000E94AE028C8349815A816B817C818D815D
:1006A0009E810E94B20A26960FB6F894DEBF0FBE56
:1006B000CDBFDF91CF910C94570A26960FB6F894D0
:1006C000DEBF0FBECDBFDF91CF91089581E00895C9
:1006D00081E008950C94680308950C946C031F93B3
:1006E000CF93DF9300D000D00F92CDB7DEB7498310
:1006F0005A836B833091EF0189819A8131111DC03A
:100700006623B9F02223A9F00E94311B182F682F0D
:1007100089819A810E94DA1A69817A81812F0F90EA
:100720000F900F900F900F90DF91CF911F910C942D
:1007300078040E94081B182FEFCF0E94311B69819B
:100740007A81EDCFFC01262F408151816281738136
:1007500084810C946F03CF93DF93EC0160E00E94DF
:10076000A203BE01DF91CF910C946D030E94D71EAE
:100770000E947D1C811102C00E942A1D0E94DE0C75
:100780000C9483060C94850608950E9444160E94DA
:10079000C4032FEF84E39CE0215080409040E1F7B8
:1007A00000C000000C94BF1E0F931F93CF93DF93E4
:1007B000EC0161E00E94A2038C01BE010E946A0369
:1007C000882389F1BE01C8010E94C70B882359F113
:1007D000BE01C8010E94600D882329F1BE01C80135
:1007E0000E94B20D8823F9F0BE01C8010E94D50E07
:1007F0008823C9F0BE01C8010E94270F882399F001
:100800008A81882339F001158CE5180751F00F3DD6
:100810001C4579F0CE01DF91CF911F910F910C947F
:1008200066030E94C50380E0DF91CF911F910F9175
:1008300008950E942A1DF7CFCF92DF92EF92FF9288
:100840006C01EE24FF2420E0C114D104E104F10482
:1008500019F0C701B60120E1C72ED82EE92EFF24DA
:10086000C114D104E104F10419F0285FC701B601F5
:100870006B017C0154E0F694E794D794C7945A95A1
:10088000D1F7C114D104E104F10419F02C5FC701C0
:10089000B6016B017C0142E0F694E794D794C794CB
:1008A0004A95D1F7C114D104E104F10419F02E5F87
:1008B000C701B6019695879577956795672B682B45
:1008C000692B09F02F5F822FFF90EF90DF90CF9080
:1008D00008950C94100381E008950C946B04CF9359
:1008E000C82F0E9469048C2FCF910C946D04089539
:1008F000972F70E026E0929F600D711D1124FB017F
:1009000090E3899FE00DF11D1124EE0FFF1FE455C8
:10091000FF4F859194910895FC01EE0FFF1FE45D58
:10092000FD4F859194910895CF93DF930E947804B1
:100930000E94A905EC01811520E5920708F042C04C
:10094000811530E4930708F0BDC0883E910528F575
:10095000803E910508F09DC0883A910588F4853A5B
:10096000910508F08FC08130910509F492C000977D
:1009700009F48FC0049708F08CC0D0E0C0E089C0B3
:100980008F3B910508F489C0805C9109C03CD1057A
:10099000A0F30E948C04EC017CC08115904250F4BD
:1009A000C11581E0D80708F074C0CD3ED10528F309
:1009B000D0656FC0C11590E3D90708F079C0CE01AA
:1009C0009F70E7CF811525E5920758F5811534E52D
:1009D000930708F0A6C0811542E5940750F4C115AD
:1009E00081E5D80708F471C0DC2FCC27C16FD06A2D
:1009F00050C0982F969596959E0123703327C11568
:100A0000D34508F07FC0C1E0D0E002C0CC0FDD1FAD
:100A10002A95E2F720E2929FC0011124C82BD92B1E
:100A20006FC0C11589E5D807A8F4C11598E5D907A5
:100A300008F07CC0C11526E5D20708F09ECF8C2FA8
:100A40000E944006C82FD0E0DC2FCC27CC27DF71D6
:100A5000D0621FC0C1153AE5D30708F46CC0CE01BF
:100A600090568115904208F088CF8D2F8F710E948B
:100A7000400690E0982F882788279F719C012C2B97
:100A8000E901E6CFC55AD0E0C85ADE4FC881D0E0B0
:100A9000D064CE01DF91CF910895C85AD0E0CC0F39
:100AA000DD1FC65DDE4F0990D881C02DD464F1CF23
:100AB000CE019927D3FF03C0EC01D86CEACFEC013B
:100AC000D06CE7CFDF70D06AE4CFCE01E4E096953A
:100AD0008795EA95E1F783702C2F2695269523704C
:100AE00090E2299F90011124382B8C2F8370C1E054
:100AF000D0E002C0CC0FDD1F8A95E2F7C22BD32BCA
:100B0000DC68C7CFC1E0D0E002C0CC0FDD1F2A9562
:100B1000E2F730E2939FC0011124C82BD92BDA6889
:100B2000B8CFD82FCC27C46FD06AB3CFDC2FCC2757
:100B3000C06FD06AAECF8C2F8F700E94400634E019
:100B4000D695C7953A95E1F7CF709C2FEC01D06907
:100B5000A0CF82389105B1F1B0F48133910509F449
:100B600075C048F48932910509F469C08A3291054B
:100B700009F473C008958533910509F459C0893388
:100B8000910501F10895833E9105A9F138F4803E65
:100B90009105F9F0823E910549F10895863E91054F
:100BA000A9F1873E9105C9F1843E910519F520917F
:100BB000AD0221FF1FC08091AC0284FD14C087EEFE
:100BC00090E008952091AC022370A1F080EE90E0B7
:100BD00008952091AC0220FD47C03091AD0230FF56
:100BE00009C024FF44C090E080E004C02091AC0222
:100BF00022FDF7CF08952091AC0222FD3BC0309139
:100C0000AD0230FDE3CF24FFF5CFEDCF2091AC0254
:100C100023FFF0CF24FDE7CFD2CF2091AC0223FDFC
:100C20002CC03091AD0231FFEECF84EE90E00895FC
:100C30002091AC0225FFDECF89E290E0089520915B
:100C4000AC0225FFD7CF85E390E008952091AC0258
:100C500026FFD0CF8AE290E008952091AC0226FFD3
:100C6000C9CF81E390E0089589E390E0089583EE91
:100C700090E0089582EE90E0089586EE90E0089569
:100C80009091AC0292FF06C0282F28712830F9F409
:100C9000877F846093FF06C0282F28712831F1F4E4
:100CA000877E84612091AD0220FF06C0382F387105
:100CB0003830D9F4877F816021FF06C0282F287142
:100CC0002831D1F4877E816194FD877E0895282F95
:100CD00024712430F9F68B7F8860DCCF282F2471B3
:100CE000243101F78B7E8861DDCF382F31713130AF
:100CF00019F78E7F8860E0CF282F2171213121F7ED
:100D00008E7E8861E1CF0C94E9020C94EA02E82F10
:100D1000F0E0E156FD4F80810895089580EA8A95BC
:100D2000F1F7089500C008950C948E06F894E82F0A
:100D3000E295EF70F0E031A1282F2F7081E090E074
:100D400001C0880F2A95EAF7982F9095932391A3D5
:100D500092A1892B82A378940895CF93DF93C1E663
:100D6000D1E089910E94960681E0C936D807C9F77B
:100D700082E90E94960683E90E94960687E90E940E
:100D8000960685E30E94960686EF0E94960687EFF8
:100D90000E949606E7E9F2E0AFE9B2E011921D92F7
:100DA00082E0EF39F807D1F788E00E945607DF911B
:100DB000CF910C94B603BF92CF92DF92EF92FF9245
:100DC0000F931F93CF93DF9301E611E0C7E9D2E0C1
:100DD000C12CD12CEE24E394F12CF80181918F01E8
:100DE000F894E82FE295EF70F0E021A18F70A70151
:100DF00002C0440F551F8A95E2F7CA01922F982B23
:100E000091A392A18095892382A378940E9492064F
:100E1000EBE5F1E030E020E0B12C4191A42FA29568
:100E2000AF70B0E090968C9190E04F7002C09595B5
:100E300087954A95E2F780FD35C08E2D022E01C0C0
:100E4000880F0A94EAF7B82A2F5F3F4F2630310502
:100E500021F7F801319780810E94960657E0C5126C
:100E60000E9494068881B816F9F0B88281E0D82AE9
:100E7000C394219688E0C812B0CF2D2D48E06FE9C9
:100E800072E087E992E00E9457070E94C2038D2D0D
:100E9000DF91CF911F910F91FF90EF90DF90CF9056
:100EA000BF90089580E0CFCF80E0E1CF0895FF921A
:100EB0000F931F93CF93DF93F82E092F162FD72F61
:100EC000C42F222349F081E08093B0010E94741E58
:100ED0009093AF018093AE018091B0018823A1F07F
:100EE0008091AE019091AF010E948C1E069760F038
:100EF000EF2DF02FA12FBD2FCE0FDF2FD11DEC171F
:100F0000FD0741F41092B001DF91CF911F910F9135
:100F1000FF90089581918D93F2CF8091B70180FF6A
:100F200012C06091180185E0689FB0011124759589
:100F300067957595679560387105A8F56115710518
:100F4000A1F1862F089581FF09C06091180185E005
:100F5000689FB001112475956795EDCF60911801D8
:100F600082FD0AC08091B6018823D1F090911701CB
:100F700060911801891728F085E0689FB00111245D
:100F8000DACF869FB001112485E0869F9001879F6C
:100F9000300D1124692F70E0C9010E94CB27CBCFFF
:100FA00065E070E0CECF8FE7089581E008958091ED
:100FB000B70180FF0CC06091140170E075956795D2
:100FC000759567956115710549F1862F089581FF23
:100FD00006C06091140170E075956795F3CF60913C
:100FE000140182FD0BC09091B5019923A1F060918D
:100FF000130180911401961738F0682F70E0603863
:10100000710500F38FE70895899FC001112470E0F6
:101010000E94CB27F4CF61E070E0D7CF81E0089544
:101020008D3E31F40E948D0781958093BB01089518
:101030008E3E19F40E948D07F8CF8F3E31F40E9446
:101040008D0781958093BA010895803F19F40E941D
:101050008D07F8CF893F29F40E94D7078093BC0100
:1010600008958A3F21F40E94D7078195F7CF8B3FDF
:1010700031F40E94D70781958093BD0108958C3F7C
:1010800019F40E94D707F8CF9FE0980F983070F4BA
:10109000815F990B21E030E001C0220F8A95EAF7C9
:1010A0008091B901822B8093B90108958D3F31F46D
:1010B0008091B70181608093B70108958E3F21F43C
:1010C0008091B7018260F7CF8F3FB9F78091B70168
:1010D0008460F1CF4091BA018D3E59F48091BB01FB
:1010E00087FF0DC01092BB0141110BC01092B601D9
:1010F00008C08E3E81F48091BB0118169CF34423F6
:1011000081F08091BC019091BD01892B09F05AC0FA
:101110001092B50108958F3E49F447FFF0CF109229
:10112000BA018091BB018111ECCFE0CF803F19F46F
:101130001416ACF3E4CF9091BC01893F29F4191641
:10114000F4F61092BC01DBCF8A3F19F497FFD7CF9A
:10115000F8CF9091BD018B3F29F497FFD0CF10922B
:10116000BD01CDCF8C3F19F41916CCF3C8CF9FE049
:10117000980F983090F4815F990B21E030E0B9012D
:1011800002C0660F771F8A95E2F7CB018095909198
:10119000B90189238093B901B2CF8D3F31F4809199
:1011A000B7018E7F8093B701AACF8E3F21F4809143
:1011B000B7018D7FF7CF8F3F09F0A1CF8091B701A5
:1011C0008B7FF0CF08950E94741E9C019091BA010C
:1011D0008091BB01982B21F03093B4012093B3018F
:1011E0009091BC018091BD01982B21F03093B20108
:1011F0002093B10188EB91E00C949111EF92FF9252
:101200000F931F93CF93DF9300D000D000D0CDB7C2
:10121000DEB786E0E8EBF1E0DE01119601900D9279
:101220008A95E1F7E090BA01F090BB010091BC0112
:101230001091BD011092BA011092BB011092BC0135
:101240001092BD018E2D8F2991F08091B301909164
:10125000B4010E948C1EAC019091B601992309F44F
:101260003FC0809119018417150608F447C0802FEC
:10127000812B91F08091B1019091B2010E948C1E5E
:10128000AC019091B501992309F477C080911501C3
:101290008417150608F47FC08091BA019091BB01B4
:1012A000892B9091BC01892B9091BD01892B11F064
:1012B0000E94E30886E0FE013196A8EBB1E00190C0
:1012C0000D928A95E1F726960FB6F894DEBF0FBE11
:1012D000CDBFDF91CF911F910F91FF90EF900895B7
:1012E00020911A018AE0289F9001112424173507C4
:1012F00008F0BDCF9F5F9093B60102C09F3FD1F72A
:10130000EE2059F00E948D079FEF1E140CF491E01F
:10131000899F802D11248093BA01FF2059F00E94EB
:101320008D079FEF1F140CF491E0899F802D1124ED
:101330008093BB013091BA01332309F498CF2091F7
:10134000BB01222309F493CF45EB3403C0011124E0
:10135000992359F09093BA0145EB2403900111248D
:10136000332339F03093BB0182CF81E08093BA01FF
:10137000F3CF81E08093BB017ACF209116018AE000
:10138000289F900111242417350708F085CF9F5F0F
:101390009093B50102C09F3FD1F7002359F00E94FE
:1013A000D7079FEF10160CF491E0899F802D112430
:1013B0008093BC01112359F00E94D7079FEF1116AB
:1013C0000CF491E0899F802D11248093BD01309110
:1013D000BC01332309F460CF2091BD01222309F41D
:1013E0005BCF45EB3403C0011124992359F090934E
:1013F000BC0145EB240390011124332339F03093D1
:10140000BD014ACF81E08093BC01F3CF81E080939E
:10141000BD0142CF86E0E8EBF1E0DF011D928A9545
:10142000E9F71092B6011092B5011092B701089534
:10143000EF92FF920F931F93CF93DF93CDB7DEB759
:101440002C970FB6F894DEBF0FBECDBF7C838D8383
:101450009E831A872B873C875F1119C0662311F082
:10146000061315C08C81882319F09A8598130FC034
:101470008E81882319F09C85981309C09D8199233A
:1014800021F081E02B85291303C080E001C081E0B9
:1014900081702C960FB6F894DEBF0FBECDBFDF91E2
:1014A000CF911F910F91FF90EF9008950895EF92C3
:1014B000FF920F931F93E090BE01F090BF01009147
:1014C000C0011091C1012091C2013091C30140912E
:1014D000C4015091C5016091C6017091C70180910E
:1014E000C8019091C9010E94180A882321F084EC58
:1014F00091E00E9491111092C6011092C7011092C2
:10150000C8011092C90186E0E4ECF1E0AEEBB1E075
:1015100001900D928A95E1F71F910F91FF90EF9046
:101520000895CF93DF9300D000D000D0CDB7DEB7C1
:1015300086E0E4ECF1E0DE01119601900D928A95CF
:10154000E1F729813A814B815C816D817E8180E068
:1015500090E026960FB6F894DEBF0FBECDBFDF91A8
:10156000CF910895CF93DF9300D000D000D0CDB7B6
:10157000DEB749835A836B837C838D839E8386E0A9
:10158000FE013196A4ECB1E001900D928A95E1F74D
:1015900026960FB6F894DEBF0FBECDBFDF91CF9178
:1015A00008958091A70286958695869508958091E5
:1015B000A70281FD07C082608093A7020E94AF1C32
:1015C0000C945A0C08958091A70281FF07C08D7F6B
:1015D0008093A7020E94AF1C0C94660C0895809122
:1015E000A70281FD0C94E30A0C94D70A8091A7020C
:1015F00086958170089580911B0108950E947D1C3D
:10160000811102C00E942A1D0E94AB1C8093A70278
:10161000803320F0877088628093A7029091A702A0
:10162000892F817090FF04C0892F869586958695B5
:101630000C94300C8091A702982F969596959695CC
:10164000953040F49F5F990F990F990F8770892B00
:101650008093A7028091A70281608093A7020E94D5
:10166000AF1C8091A7028695869586950C94300CC8
:101670008091A702982F987F79F088508093A702D5
:10168000887F91E009F490E08091A70290FB80F9B7
:101690008093A7020E94AF1C8091A7028695869531
:1016A00086950C94300C8091A70280FD13C0816058
:1016B0008093A702813019F489E08093A70280917A
:1016C000A7020E94AF1C8091A702869586958695F9
:1016D0000C94300C08958091A70280FF08C08E7F83
:1016E0008093A7020E94AF1C80E00C94300C0895F8
:1016F0008091A70280FD0C946B0B0C94530B90917E
:10170000A702892F8695869586958F5F8F71977032
:101710008630D8F4880F880F880F892B8093A70212
:101720008091A702887F91E009F490E08091A70260
:1017300090FB80F98093A7020E94AF1C8091A702C2
:101740008695869586950C94300C9093A702E8CFE9
:10175000863008F085E09091A7029770282F220F1D
:10176000220F220F922B9093A702987F21E009F479
:1017700020E09091A70220FB90F99093A7020C948F
:10178000300C0E94A80B8091A7020C94AF1CFC01A6
:10179000DB0112968C918823F9F0EC5BFC45E73075
:1017A000F105D8F4E457F74D0C94202885E00E9409
:1017B000C10B80E0089580E0FACF0E94380BF9CF8A
:1017C0000E941A0BF6CF0E94780BF3CF0E947F0B7A
:1017D000F0CF0E94EF0AEDCF81E00895269A2E9A6D
:1017E00008952E9A0895CF92DF92EF92FF928C3750
:1017F00024E1920750F469E070E00E94B727CB0122
:10180000FF90EF90DF90CF900895B0E0A0E0BC0192
:10181000CD016A50774D8F4F9F4F982F872F762F8E
:10182000662725EF38E241E050E00E94DF2769019A
:101830007A01CA01B9010E94A7279B01AC01C70127
:10184000B6010E94A727672F782F892F9927611546
:10185000710521E08207910591F66FEF7FEFCFCF01
:10186000CF93C82F8630F0F481111DC08091800085
:101870008F7C809380000E94F10B2C2F30E0AFEF23
:10188000BFEF0E94262825E030E040E050E00E94B3
:10189000DF27C9010E94F30B90938B0080938A008D
:1018A000CF910895C5E0809180008063809380008F
:1018B000E4CF08951092CB011092CA011092CC018E
:1018C000EFE6F0E08081816080830895EFE6F0E04C
:1018D00080818E7F80830E94D10A0C94300C1F92ED
:1018E0000F920FB60F9211242F933F934F935F9354
:1018F0006F937F938F939F93AF93BF93CF93EF9308
:10190000FF930E94FB0A4091CA015091CB014F5FA7
:101910005F4F94EF899F90011124CA01B9010E9481
:10192000B7279093CB018093CA01B901660F672F47
:10193000661F770B71950E94B7276F778091CC0156
:10194000823041F4603451F480916F008E7F809337
:101950006F0004C0813011F46F37B1F3E62FF0E06F
:10196000E45DFD4FC4910E94D10A282F41E051E06F
:10197000C49FC001C59F900D112465E070E00E94D6
:10198000B727269FC001279F900D11240E94F30BBB
:1019900090938B0080938A00FF91EF91CF91BF913C
:1019A000AF919F918F917F916F915F914F913F91F7
:1019B0002F910F900FBE0F901F9018950E94EE0B65
:1019C00082E38093800089E1809381008FEF9FEF15
:1019D00090938700809386000E94FE0A0E94F60A78
:1019E00081110C945A0C08950F931F93CF93DF939A
:1019F000C42FD22FFC0182818823C9F04093CF01EC
:101A00000E94741E9093CE018093CD0180E28C0FD2
:101A1000883008F050C0C77081E001C0880FCA95B7
:101A2000EAF7DF91CF911F910F910C94AD131091B4
:101A3000CF01141335C08091CD019091CE010E9449
:101A40008C1E883C910560F5C0E2CD0F1D17B9F0E2
:101A500080E2810F883040F4177081E001C0880F68
:101A60001A95EAF70E94B413C83048F481E09D2F1C
:101A7000977001C0880F9A95EAF70E94AD13802FE6
:101A80000E94A513C830B8F4D77081E001C0880F58
:101A9000DA95EAF7DF91CF911F910F910C94B4136F
:101AA00080E28C0F883038F4C77081E001C0880F65
:101AB000CA95EAF7EFCFDF91CF911F910F9108956B
:101AC0000F939C01CB01243F4CE5340759F1A8F456
:101AD000293DFCE53F0701F12A3D4CE53407D1F1F2
:101AE000283D3C4591F406E221EE41EE68ED7CE5AF
:101AF0000E94F40C80E00F910895263FFCE53F071B
:101B0000E9F0B0F0273F3C45F9F0FC0182818823E1
:101B100039F11092CF01EFCF07E225EE45EE69EDE6
:101B20007CE5E6CF06E221EE40EE64EF7CE5E0CF17
:101B300007E225EE44EE65EF7CE5DACF06E221EE22
:101B400042EE66EF7CE5D4CF07E225EE46EE67EF86
:101B50007CE5CECF08E221E045EE6AED7CE5C8CF1A
:101B600081E0C9CFCF93DF93EC01FB018281882311
:101B700009F419C1C230FCE5DF07C0F1C6319CE5AC
:101B8000D90730F09E012B5F3C452930310570F5B7
:101B90000E94901C9093AD028093AC02C031ECE5A2
:101BA000DE0709F4CFC008F05BC0C8308CE5D80769
:101BB00009F4B6C088F5C430ECE5DE0709F4A8C026
:101BC000C0F4C2308CE5D80709F49CC08091AC0207
:101BD0008260C330DC4509F498C08091AC029091DA
:101BE000AD020E949E1C0E94441680E0DF91CF91BE
:101BF00008958091AC028061C630ECE5DE0709F4FF
:101C000084C08091AC028860C730DC4508F47DC098
:101C10008091AC02806279C0CC308CE5D80709F4A1
:101C200089C070F48091AC028C60CA30ECE5DE07AC
:101C300009F46BC008F478C08091AC028E7F65C057
:101C4000CE308CE5D80709F479C08091AC028B7F47
:101C5000CF30DC4508F459C08091AC028F7E55C06E
:101C6000CC3FECE5DE0709F457C030F5C3318CE515
:101C7000D80709F46FC078F4C131ECE5DE0709F448
:101C800065C0C231DC4509F0A8CF0E94441680919E
:101C9000AC028F773AC0C5318CE5D80709F462C031
:101CA00008F476C08091AD028160CB3FDC4509F03D
:101CB00094CF8093AD0291CFC115FDE5DF0709F404
:101CC0004DC088F48091AD028D7FCE3F9CE5D90751
:101CD00081F38091AD028E7FCF3FDC4550F3809140
:101CE000AD028360E6CFC230FDE5DF0709F459C0DD
:101CF00008F444C080E0C330DD4509F06ECF0E9497
:101D00002C1D6BCF8091AC0281608093AC0265CFBB
:101D10008091AC028460F9CF8091AD028260C9CF1E
:101D20008091AC028064F1CF0E9444168091AC0295
:101D30008068EBCF8091AC028D7FE7CF8091AC02C1
:101D4000877FE3CF8091AC028F7DDFCF8091AC02A3
:101D50008F7BDBCF8091AC02837FD7CF8091AD02A8
:101D60008C7FA7CF8091AC0282FB992790F921E06C
:101D7000922790FB82F990FB83F9C7CF8091AD0247
:101D8000982F909591708E7F892B90FB81F991CF40
:101D90000E9444169091AC02892F97FB87F98058D6
:101DA000B4CF81E0ACCF81E021CFCF93DF93EB01C3
:101DB00086319C4511F50E94C61B9A81992399F0A2
:101DC0008A7A91E009F490E09093D001811109C0E2
:101DD00089E20E94A11B0E94121C80E0DF91CF913A
:101DE000089585E3F6CF8091D001811104C089E286
:101DF0000E94A81BF0CF85E3FBCF81E0EFCFFC0171
:101E0000E950FD45E032F105E8F423E0F695E79569
:101E10002A95E1F7EF52FE4F2081AC01477055271C
:101E200081E090E001C0880F4A95EAF7DB01129645
:101E30003C91332349F0822B80838091D7018260CB
:101E40008093D70181E0089580958223F5CF0E9489
:101E5000FF0E882369F08091D70181FF09C081EDD1
:101E600091E00E94AC1F8091D7018D7F8093D701B4
:101E700081E00895E82FE295EF70F0E022A1482F6D
:101E80004F7081A130E0042E02C0359527950A9449
:101E9000E2F7220F331F2270332790E002C095959E
:101EA00087954A95E2F781709927822B932B0895A5
:101EB000E82FE295EF70F0E092A18F7021E030E022
:101EC000082E01C0220F0A94EAF7209561FB4427EF
:101ED00040F9082E01C0440F0A94EAF79223942B8C
:101EE00092A391A16170772701C0660F8A95EAF7E6
:101EF0002923622B61A308952F923F924F925F9204
:101F00006F927F928F929F92AF92BF92CF92DF9209
:101F1000EF92FF920F931F93CF93DF9300D000D0E7
:101F2000CDB7DEB741E051E05C834B8381EDE82E15
:101F300081E0F82E01E010E0EB81FC8181818F3F90
:101F400009F42FC10E943A0F9A838983EB81FC81A7
:101F50009181E92FE295EF70F0E022A19F70A80136
:101F600002C0440F551F9A95E2F7CA01809582235B
:101F700082A3EB81FC818181E82FE295EF70F0E094
:101F800091A18F70980101C0220F8A95EAF7892FDD
:101F9000822B81A3F5E3FA95F1F70000EB81FC8138
:101FA0008081D12CC12C8F3F29F10E943A0F6C0106
:101FB000EB81FC818081E82FE295EF70F0E091A148
:101FC0008F70980101C0220F8A95EAF7892F822B22
:101FD00081A3EB81FC818081E82FE295EF70F0E036
:101FE00092A18F70980101C0220F8A95EAF7892F7C
:101FF000822B82A3EB81FC818281312C212C8F3FAB
:1020000039F10E943A0F1C01EB81FC818281E82F9B
:10201000E295EF70F0E091A18F70980101C0220F5E
:102020008A95EAF7892F822B81A3EB81FC8192812B
:10203000E92FE295EF70F0E022A19F70A80102C0A5
:10204000440F551F9A95E2F7CA018095822382A317
:1020500055E35A95F1F70000EB81FC819181E92F5E
:10206000E295EF70F0E021A19F70A80102C0440F3B
:10207000551F9A95E2F7CA018095822381A3EB81CF
:10208000FC819181E92FE295EF70F0E022A19F7031
:10209000A80102C0440F551F9A95E2F7CA01809526
:1020A000822382A355E35A95F1F70000EB81FC816E
:1020B00081810E946211EB81FC8145805680712CE8
:1020C000612C092E000CAA0BBB0B4C015D0184187E
:1020D0009508A608B708A1E8BFEFA50194010E94E2
:1020E00043282381348150E040E024193509460912
:1020F00057090E940128121613061406150694F4B7
:10210000AFE7B0E0A50194010E943528EB81FC8186
:102110002781308550E040E02419350946095709E8
:102120000E940128DA01C9018138FFEF9F07AF073C
:10213000BF0724F481E89FEFAFEFBFEF8038910530
:10214000A105B10524F08FE790E0A0E0B0E0F70131
:1021500042815381052E000C660B770B48175907F7
:102160006A077B0739F0938382838091D70182606D
:102170008093D701EB81FC8180818F3F19F0B601FC
:102180000E94580FEB81FC8182818F3F19F0B101D1
:102190000E94580F69817A81EB81FC8181810E94C4
:1021A000580F4B815C81475F5F4F5C834B8352E0EC
:1021B000E50EF11C8B819C818351914009F0BCCECE
:1021C00081E00F900F900F900F90DF91CF911F91B2
:1021D0000F91FF90EF90DF90CF90BF90AF909F90C6
:1021E0008F907F906F905F904F903F902F900895C9
:1021F0000C947C0F0E94F810882369F08091D7011D
:1022000081FF09C081ED91E00E94AC1F8091D70150
:102210008D7F8093D7010895873901F178F4863353
:10222000F9F030F48433F1F08533F1F08FE1089563
:102230008439E1F08639D1F781E20895843FC1F015
:1022400030F4803FB9F0813F89F781E00895863FFF
:1022500099F0A0F0873F51F787E0089582E2089552
:1022600085E2089583E2089584E2089580E2089566
:1022700084E0089580E0089586E0089585E008955B
:1022800096E890937A00982F9072906890937B00D4
:102290008F7190911C01892B80937C0080917A0032
:1022A000806480937A0080917A0086FDFCCF8091D3
:1022B00078002091790090917A009F7790937A002E
:1022C000922F08950E940C110C9440119093DD01FF
:1022D0008093DC010895E091DC01F091DD013097FD
:1022E00021F00190F081E02D099480E00895E091C3
:1022F000DC01F091DD01309799F020912901222332
:1023000059F02091AC0227FF07C0DC012C911196F7
:102310002C93119725E02C930280F381E02D0994F2
:102320000895E091DC01F091DD01309739F022E071
:10233000DC012C930480F581E02D0994089520910F
:10234000DA013091DB012817390771F09093DB0136
:102350008093DA01E091DC01F091DD01309721F00A
:102360000680F781E02D099408952091D8013091DD
:10237000D9012817390771F09093D9018093D801BA
:10238000E091DC01F091DD01309721F00084F185CE
:10239000E02D099408950E94801E6093EB017093D4
:1023A000EC018093ED019093EE016093E70170934F
:1023B000E8018093E9019093EA01089585B7806868
:1023C00085BF85B7806885BF0895089508950C94EA
:1023D000E51108950C94E9110E94DE1185E79CE156
:1023E0000E94D01E0E94E6110C94E71181E008952E
:1023F0000C94F611089508950E946B1E0E94AD067C
:102400000E94EB1E0E94FE0A0E94560A0C94EA11DA
:10241000AF92BF92CF92DF92EF92FF920F931F93F2
:10242000CF93DF93CDB7DEB72A970FB6F894DEBF10
:102430000FBECDBF0E94FA110E94FB110E94DB0665
:1024400081110E94CB118FEDA82E81E0B82E10E0F3
:1024500000E0C02E802F0E948706E82EF501F19043
:102460005F01F81609F454C08091730281FD0E9447
:102470008D068F2D8E25D12CFF24F394982F9F212C
:1024800009F441C00E94F811882399F0DE82CF82BE
:10249000EF2081E009F480E088870E94741E81604B
:1024A000782F9A8789874E815F8168858A850E9407
:1024B000B012F801E152FE4F8081F826F0820E94AE
:1024C000590C0E94FE080E9417030E94FA100E94F5
:1024D0006B119091DE01891791F10E946B1180932D
:1024E000DE012A960FB6F894DEBF0FBECDBFDF9196
:1024F000CF911F910F91FF90EF90DF90CF90BF9001
:10250000AF900C946F04D394FF0CF6E0DF12B6CFBB
:102510000F5F1F4F0830110509F09BCF8FEF8983A4
:102520008A831B820E94741E8160782F9D838C8316
:1025300049815A816B818D810E94B012C0CF2A9649
:102540000FB6F894DEBF0FBECDBFDF91CF911F91C4
:102550000F91FF90EF90DF90CF90BF90AF900895D4
:10256000DF92EF92FF920F931F93CF93DF93CDB73C
:10257000DEB72B970FB6F894DEBF0FBECDBF7A87BC
:102580008B87F42E052F162FE72ED82E61110E946F
:10259000E61B1E821D827E2DEC82DD824F2D502F88
:1025A000612F8D2D9E812B960FB6F894DEBF0FBE46
:1025B000CDBFDF91CF911F910F91FF90EF90DF90F2
:1025C0000C94BA18FC01808191810C94731B0F93B9
:1025D0001F93CF93DF9300D000D000D0CDB7DEB7EC
:1025E000082F162F0E94910A29834B835C836D83E9
:1025F0007E83002399F0312B4981532F6B817C819D
:102600008D819E8126960FB6F894DEBF0FBECDBF9A
:10261000DF91CF911F910F910C94B20A1095312345
:10262000EBCFCF93C82F882309F447C08CEF8C0FD2
:10263000813AA0F46C2F80911D0190911E010E949F
:10264000451D882329F08C2F0E94A81B0E94121C74
:102650008C2F0E94A11BCF910C94121C80E28C0F36
:10266000883048F4C77081E001C0880FCA95EAF746
:102670000E94C91BF0CFEBE5EC0FE33040F4F0E033
:10268000E956FE4F808190E0CF910C949F11E8E5D0
:10269000EC0FE73150F4F0E0EE0FFF1FE759FE4F6B
:1026A00080819181CF910C94B511CD3E30F08C2F6B
:1026B0000E941008CF910C94E308CF9108958823CD
:1026C00061F19CEF980F913A20F40E94A81B0C94A2
:1026D000121C90E2980F983050F4877091E001C07E
:1026E000990F8A95EAF7892F0E94CF1BF0CF9BE5BF
:1026F000980F933020F490E080E00C949F1198E5BF
:10270000980F973120F490E080E00C94B5118D3E45
:1027100020F00E946A080C94E30808951F93CF9359
:10272000DF93182FEB010E941113209731F4812FB2
:10273000DF91CF911F910C945F138FE99FE0019778
:10274000F1F700C000002197F0CF64E670E0893314
:1027500011F460E570E00C948E13882321F00E9440
:10276000C91B0C94121C0895882321F00E94CF1BD2
:102770000C94121C0895BF92CF92DF92EF92FF92B9
:102780000F931F93CF93DF936C01D62FC72FFC01BC
:102790001281058102950F700E94BF1BE82E8823CD
:1027A000A1F0E12E112389F08C2F807F803429F055
:1027B00080E28D0FE12C883040F082E00E945D1CA9
:1027C0000E94BF1B91E0E82EE926BC2EB2949FE048
:1027D000B922EB2DF0E0ED56F74D0C9420280C2F8C
:1027E0000F70C07F11F00295007F1123A9F0002324
:1027F00059F080E28D0F883010F0D11109C0802F80
:102800000E94C91B0E94121C8D2F0E94111314C01C
:10281000802F0E94D91BF6CF8D2F0E945F130023BB
:1028200059F080E28D0F883010F0D1112BC0802F2D
:102830000E94CF1B0E94121CEB2DE850FF0B349717
:1028400020F40E946B110E946F04EE2009F4BDC1B8
:102850000E94BB1B80FDB9C1F60112820E94B51B0C
:102860000E943E1AC6010E9406160E94B51BDF9107
:10287000CF911F910F91FF90EF90DF90CF90BF907D
:102880000C945F1A802F0E94DF1BD4CFFC2FFF70A7
:10289000FF2EC07FC03219F0F29480EFF822DD23C2
:1028A00069F0D13049F1112391F1002351F1F60182
:1028B000858180FFA9CF8F70858323C0112381F08C
:1028C000011106C00E94F91B8F290E94AD13B4CFDD
:1028D0000130C1F70E94F91B8F290E94FF1BACCF6A
:1028E000011106C00E94081C8F2D0E94B413A4CFB2
:1028F000013009F4A1CFF6CF112329F0063008F0FA
:102900009BCF8F2DE2CF053008F096CFEDCF00237F
:1029100059F3D93369F4FFEF27EE33E0F15020404B
:102920003040E1F700C000008D2F0E945F1384CF7C
:102930008FEF91EEE4E081509040E040E1F7F2CF7C
:102940008C2F86958695837069F0813009F074CF5D
:102950008D2F9C2F9370111102C090E080E00E9497
:10296000B5116ACF8D2F9C2F9370111102C090E08A
:1029700080E00E949F1160CF8D2F112391F00E9463
:1029800010082D2F215F330B2830310568F461E0EA
:1029900070E001C0660F2A95EAF7812F0E94E712C6
:1029A0004BCF0E946A08EDCF0E94E30845CF8C2FE1
:1029B000837009F041C011113FCF4D2F42954695CC
:1029C0004770440F440F0D2F0F7010E030E020E0EF
:1029D000042E04C0000F111F221F331F0A94D2F7C8
:1029E00060E070E0CB01D4FF0FC06FE070E080E0EA
:1029F00090E004C0660F771F881F991F4A95D2F791
:102A00006095709580959095C695C695C370602B1E
:102A1000712B822B932BC23049F058F4C13019F03E
:102A20000E94F01909CF0E94DE1906CF0E94021AF7
:102A300003CF0E94DC1900CF8695112311F08C2F53
:102A40008170882309F4F8CE4D2F42954695477042
:102A5000440F440F0D2F0F7010E030E020E0042EE3
:102A600004C0000F111F221F331F0A94D2F760E029
:102A700070E0CB01D4FF0FC06FE070E080E090E029
:102A800004C0660F771F881F991F4A95D2F760957B
:102A9000709580959095C695C695C370602B712BE7
:102AA000822B932BC23049F058F4C13019F00E94A8
:102AB000B51AC2CE0E94A31ABFCE0E94C71ABCCEBE
:102AC0000E94181AB9CECF70112329F08C2F0E94C2
:102AD0003E1A8D2FFACE8D2F0E94B4138C2F0E9498
:102AE0005F1AAACED23F89F160F4D03FC9F0D13F3E
:102AF00029F1112309F442C0011186CE8C2F8F7168
:102B000021C0D33F39F1D43FA1F7112369F1CF712F
:102B10008C2F0E943E1A63E08C2F0E94481C8CCEA2
:102B2000112341F0053008F087CE8C2F8F710E9461
:102B3000821A82CE063008F07FCEF7CF8C2F8F71AD
:102B4000112369F20E943E1A77CE8C2F8F711123C8
:102B5000C9F3C5CF112329F08C2F8F710E94291A38
:102B60006BCE0E94241A68CE81E00E945D1C023068
:102B700008F462CE82E00E945D1C5ECE002391F0DC
:102B8000D93341F43FEF87EE93E0315080409040DD
:102B9000E1F7C8CEEFEFF1EE24E0E150F040204045
:102BA000E1F7C0CE8C2F8F719ACF4C2F4F706D2FC5
:102BB000C6010E94E6020E9454193ECE4C2F4F706F
:102BC0006D2FC6010E94770437CEDF91CF911F9100
:102BD0000F91FF90EF90DF90CF90BF9008950F93EB
:102BE0001F93CF93DF93EC01688179818A810E94E2
:102BF0007D1B8C010E94D91A0E94DB19B801CE01FD
:102C0000DF91CF911F910F910C94BB13CF93DF9362
:102C1000EC018B819C81892B29F088819981892302
:102C20008F3F59F4DF91CF910895CE010E94EF15A7
:102C3000CE01DF91CF910C94AB03CE010E94D4035F
:102C40008111F3CF0E94BF1B882361F38A818823FF
:102C500049F382E0DF91CF910C945D1C90E080E01D
:102C60000E949F1190E080E00E94B5110E94E61B37
:102C70000E94F61B0E94121C0E940A0A0C94E30890
:102C80000E94AF1B0C942E160E94D61B0C9440166B
:102C9000E92FE295EF70E250EE3070F4F0E0ED5580
:102CA000F74D0C942028803F19F020F4883E20F442
:102CB00081E00895843FE1F380E00895883EC0F309
:102CC000813FD1F7F5CF93FB882780F908950E94C3
:102CD000731B0C944816CF93DF9300D000D00F9253
:102CE000CDB7DEB70F900F900F900F900F90DF9140
:102CF000CF910895CF93DF9300D000D000D0CDB70F
:102D0000DEB726960FB6F894DEBF0FBECDBFDF91BB
:102D1000CF9108951F93CF93DF93C091F00116E0F8
:102D20008091F1018C1304C0DF91CF911F91089520
:102D3000D0E01C9FF0011D9FF00D1124EE50FE4FBE
:102D40004081518162817381848195810E947A16CC
:102D50002196C770E5CF40912202509123026091E5
:102D600024027091250280912602909127020C94F2
:102D70007A161F93CF93DF9380912702807FA9F467
:102D800080912402882389F08091F001C091F101A3
:102D90006091220270912302A0912502B091260237
:102DA000D62FD72316E0C81304C0DF91CF911F910F
:102DB000089590E0109711F0DF3F19F401968770A5
:102DC000F2CF189F9001199F300D1124F901EE5098
:102DD000FE4F41814713F2CF40814613EFCF42812E
:102DE0004111ECCF438154814A1B5B0B483C510598
:102DF00028F7809127028F70806180932702F90164
:102E0000E950FE4F80818F708061808382E292E082
:102E10000E940616DF91CF911F910C948A16AF92F3
:102E2000BF92CF92DF92EF92FF920F931F93CF93B7
:102E3000DF93CDB7DEB761970FB6F894DEBF0FBE54
:102E4000CDBF8C0185E0F801DE011D9601900D9249
:102E50008A95E1F7F80140815181E28082E2C82E33
:102E600082E0D82E609125027091260261157105CD
:102E700009F461C19091220220912302892F8223BB
:102E80008F3F09F458C1A380B480F0902402F5016B
:102E9000E61BF70BFF2009F4FCC080912702382FB6
:102EA000307FE83CF10508F0B2C0311179C0FE2C4A
:102EB000251323C0941321C0E1101FC08F708061BF
:102EC000809327020E94AB16C6010E9406168091CD
:102ED0002702F80185838F2D61960FB6F894DEBF27
:102EE0000FBECDBFDF91CF911F910F91FF90EF905B
:102EF000DF90CF90BF90AF900895AB2829F0842F3A
:102F000085238F3F09F033C180E0F82FF170DF2E69
:102F100080FF3CC08091F0012091F10136E08213E6
:102F200015C04D875E878D859E850E94731B292F56
:102F300022952F702230F0F0243018F59F70F1F0B8
:102F4000F8019581907FD1F4D12C1EC090E0389F7C
:102F5000F001399FF00D1124EE50FE4F6181651391
:102F600006C06081641303C062816E110FC00196B8
:102F70008770D5CF9F7011F0882331F3805E883041
:102F800018F3C8010E940616FD2CA5CFEE2009F407
:102F9000A2CF80912702816080932702F12C9BCFE2
:102FA000251306C0941304C0F801EE2009F48DC067
:102FB0004D875E878D859E850E946716882319F14F
:102FC000EE2009F180912702803270F020912202D8
:102FD0003091230238872F831986BB86AA868C8777
:102FE000CE0107960E94061686E0F801A2E2B2E042
:102FF00001900D928A95E1F70E94B9160E94AB16D6
:10300000FF24F39468CFC8010E940616F9CF31114E
:1030100013C07A2DB98AA88A6E2D89890E946B16F1
:1030200082E292E00E94061686E0F60111928A95ED
:10303000E9F70E94AB16B2CF25130FC094130DC051
:10304000E1100BC0F8018583C8010E94061686E0D6
:10305000F60111928A95E9F73ECF4D875E878D85FF
:103060009E850E946716882371F2EE2061F280919E
:103070002702803208F4B8CF209122023091230237
:103080003A8329831B82BD82AC828E83CE01019656
:10309000A9CFE83CF10508F041C0FE2CEE2009F470
:1030A000B2CF25132AC0941328C08091270280FD37
:1030B0001BC0982F907FC1F0F8018583903F31F0BD
:1030C000982F907F905F8F70892B8583C8010E9415
:1030D000061686E0F801A2E2B2E001900D928A9510
:1030E000E1F70E94AB16F7CE86E0F801A2E2B2E06B
:1030F00001900D928A95E1F7EECE4D875E878D8522
:103100009E850E94671681116FCF80912702816092
:1031100080932702C8010E940616DDCE7A2DB98A57
:10312000A88A6E2D89890E946B1686E0F60111929D
:103130008A95E9F7D6CFEE2009F465CF4D875E87F3
:103140008D859E850E946716F82E882309F45BCF33
:1031500086E0F801A2E2B2E001900D928A95E1F7D3
:1031600082E292E00E94E2120E94B916BACF81E098
:103170008E25CBCE1F93CF93DF93CDB7DEB72C97A1
:103180000FB6F894DEBF0FBECDBF4F835887698757
:103190007A878B879C87CE0107960E940F1788231A
:1031A00069F08A859B85892B39F04F815885842F5A
:1031B00085238F3F09F071C016E05FC086E0FE01F5
:1031C0003796DE01119601900D928A95E1F78A8576
:1031D0009B85892B89F38F81988589238F3F61F3A4
:1031E0002091F10130E0C901019687709927409143
:1031F000F0014817190671F40E9444161092F1016B
:103200001092F00186E0E2E2F2E0DF011D928A9581
:10321000E9F7D2CF96E0929FD001939FB00D112491
:10322000AE50BE4FFE01319601900D929A95E1F796
:103230008093F1010E948A16BFCF819FC0011124A3
:103240008E509E4F0E940F178823E9F0E091F00105
:103250001E9FF0011124EE50FE4F4081518162818A
:103260007381848195810E947A168091F00190E0AB
:103270000196877099278093F0018091F0019091D9
:10328000F1018913DACF2C960FB6F894DEBF0FBE8A
:10329000CDBFDF91CF911F91089569857A858B8588
:1032A0009C850E947A1688CFEF92FF920F931F930E
:1032B000CF93DF938C01892B81F0F12CEE24E394E2
:1032C000E8012196F8018491843770F4843008F085
:1032D0005FC08130B1F08230A1F1DF91CF911F91B9
:1032E0000F91FF90EF900895853709F44CC008F4D2
:1032F0003DC09CE7980F903780F78F770E945F134F
:1033000049C00E5F1F4FFE01849190E2980F9830E4
:1033100060F48770FE2D01C0FF0F8A95EAF78F2FAA
:103320000E94E91B0E94121C02C00E9411138F2DE3
:10333000815030F2EFE9FFE03197F1F700C0000073
:10334000F7CF0E5F1F4FFE01849190E2980F9830E7
:1033500050F48770FE2D01C0FF0F8A95EAF78F2F7A
:103360000E94EF1BDFCF0E945F13E1CF0E5F1F4F64
:10337000FE01C491C150D8F28FE99FE00197F1F7A7
:1033800000C00000F7CF0E5F1F4FFE01F490CFCFBB
:103390000E9411138E01CBCF08950C94CC190E947A
:1033A000CD1960934A0270934B0280934C02909324
:1033B0004D020C942E1608950C94CF190F931F9361
:1033C00000914A0210914B0220914C0230914D0223
:1033D000602B712B822B932B1F910F910C94CF1983
:1033E0000F931F9300914A0210914B0220914C02BF
:1033F00030914D0260237123822393231F910F91FB
:103400000C94CF190F931F9300914A0210914B0215
:1034100020914C0230914D0260277127822793271B
:103420001F910F910C94CF190C94CC190C94141A71
:103430000E94161A609346027093470280934802D6
:10344000909349020C942E1660E070E0CB010C942E
:10345000181A0F931F9341E050E060E070E08A017A
:103460009B0104C0000F111F221F331F8A95D2F742
:10347000C901B8011F910F910C94181A0F931F9353
:1034800041E050E060E070E004C0440F551F661F4B
:10349000771F8A95D2F78091460290914702A091BA
:1034A0004802B09149028A019B01082B192B2A2B53
:1034B0003B2BC901B8011F910F910C94181A0F935F
:1034C0001F9341E050E060E070E004C0440F551FDE
:1034D000661F771F8A95D2F7CB01BA016095709568
:1034E00080959095009146021091470220914802E4
:1034F0003091490260237123822393231F910F91FE
:103500000C94181A0F931F9341E050E060E070E0B4
:1035100004C0440F551F661F771F8A95D2F780910C
:10352000460290914702A0914802B09149028A0157
:103530009B01082719272A273B27C901B8011F919A
:103540000F910C94181A0F931F930091460210913B
:1035500047022091480230914902602B712B822B47
:10356000932B1F910F910C94181A0F931F93009196
:10357000460210914702209148023091490260238F
:103580007123822393231F910F910C94181A0F9388
:103590001F930091460210914702209148023091FA
:1035A000490260277127822793271F910F910C945E
:1035B000181A0895E92FEE0FE90FEE0F8E0F982FCE
:1035C000977041E001C0440F9A95EAF78695869579
:1035D000869595E0899FF0011124E85DFD4F30E06C
:1035E00020E070E05191DF011197CB01022E02C063
:1035F000969587950A94E2F78170819585278423B3
:1036000085278C932F5F3F4F2530310559F708955B
:10361000E92FEE0FE90FEE0F8E0F982F977086951A
:103620008695869525E0829FF0011124E85DFD4F87
:1036300050E040E080E0219130E0092E02C0369554
:1036400027950A94E2F721703327042E01C0220F38
:103650000A94EAF7822B4F5F5F4F4530510559F7C7
:103660000895BF92CF92DF92EF92FF920F931F9334
:10367000CF93DF938C01C0904602D0904702E09038
:103680004802F090490280914A0290914B02A09129
:103690004C02B0914D02C82AD92AEA2AFB2ACFE16E
:1036A000D0E0BC2ED701C6010C2E04C0B695A7955C
:1036B000979587950A94D2F780FD0EC0219788F7D9
:1036C000B12C8B2DDF91CF911F910F91FF90EF9037
:1036D000DF90CF90BF900895B8018C2F0E94940482
:1036E000019761F3EECFCF93DF93EC010E94311B82
:1036F000BE01DF91CF910C9494041F93CF93DF937D
:10370000EB019091EF01992331F0CB01DF91CF9143
:103710001F910C94731B882379F0CB010E94311BFD
:10372000182F682FCE010E94DA1ABE01812FDF9177
:10373000CF911F910C949404CB010E94081B182F69
:10374000F4CF682F80911D0190911E010C94C51D2E
:10375000682F80911D0190911E010C94D01D8091C5
:103760001D0190911E010C94DB1D80914E028595E8
:1037700085958595089580914E0287700895909162
:103780004E02977081E009F480E008958091720202
:10379000089590917202892B80937202089580950A
:1037A000909172029823909372020895109272027F
:1037B000089590917102892B8093710208958095EC
:1037C0009091710298239093710208951092710262
:1037D000089590917002892B8093700208958095CE
:1037E0009091700298239093700208951092700245
:1037F000089580914F02089508950C94FC1B9091B8
:103800004F02981721F080934F020C94FD1B0895EE
:1038100080914F02882329F010924F0280E00C948F
:10382000FD1B0895E0911D01F0911E01809172022F
:103830008083E0911D01F0911E01808190917102C1
:10384000892B8083E0911D01F0911E018081909170
:103850007002892B808390914F02992381F0E0912F
:103860001D01F0911E018081892B808380911D01B3
:1038700090911E010E94311D81110E94081C8091AF
:103880001D0190911E010C94771108950C94451C14
:1038900098E0899F90011124622B60934E020E9450
:1038A0003E1A80914E028595859585950C94461C0F
:1038B00010924E0280E00C94461C90914E0280952E
:1038C000892380934E02282F277071F4282F082E09
:1038D000000C330B9217130639F085958595859565
:1038E0000E945F1A0C94581C089580E008956FEFB1
:1038F0007FEF90E080E00C94742890E080E00E94DC
:10390000502821E08B3E9E4F09F020E0822F089541
:1039100082E090E00C94482883E090E00C944828E2
:10392000CF9384E090E00E944828C82F81E290E085
:103930000E944828982F8C2FCF910895CF93C92F9C
:10394000682F84E090E00E9456286C2F81E290E07E
:10395000CF910C94562886E090E00C944828682F6C
:1039600086E090E00C945628AB01BC018FE090E01B
:103970000C946828AB01BC0183E190E00C946828AA
:1039800060E070E0CB010C94BA1C60E070E0CB0109
:103990000E94B41C0C94C01C6BEE7EEF90E080E0A3
:1039A0000E94742860E082E090E00E94562860E067
:1039B00083E090E00E94562810924A0210924B0237
:1039C00010924C0210924D0260E084E090E00E9460
:1039D000562860E081E290E00E94562860E085E091
:1039E00090E00E94562860E086E090E00E94562811
:1039F0006FEF87E090E00E94562840E050E0BA0167
:103A000088E090E00E94682860E08DE090E00E94ED
:103A1000562840E050E0BA0188E190E00E94682812
:103A200060E087E190E00E94562840E050E0BA0153
:103A30008CE190E00E94682860E080E290E00E94C3
:103A4000562840E050E0BA0188E190E00E946828E2
:103A50000C94C51C0C94CC1C682F8EE090E00C9448
:103A60005628FC01329680912901882321F080910B
:103A7000AC029EE187FF96E080E0915008F4089543
:103A800021912223D1F38F5FF8CF662301F120919A
:103A900029012223F1F02091AC0227FF1AC0462F02
:103AA0004695469546954E3190F4677021E030E09A
:103AB00002C0220F331F6A95E2F7840F911DFC01AB
:103AC000828190E02823392381E0232B69F480E070
:103AD0000895FC01329608962191261721F0E817E7
:103AE000F907D1F7F4CF81E008959C01FC013296EB
:103AF0009FEF80E04191461751F09F3F19F441112B
:103B000001C0982F8F5F8630A9F79F3F09F4089571
:103B1000290F311D97FD3A95F90162830895FC0143
:103B2000329608962191261303C0DF0111971C924B
:103B3000E817F907B9F70895E62FE695E695E695B3
:103B4000EE3168F4E80FF92FF11D677021E030E0E5
:103B500001C0220F6A95EAF78281822B8283089541
:103B6000E62FE695E695E695EE3170F4E80FF92F2D
:103B7000F11D677021E030E001C0220F6A95EAF77D
:103B800020958281282322830895209129012223D0
:103B900029F02091AC0227FD0C949C1D0C94751DFE
:103BA00020912901222329F02091AC0227FD0C94B9
:103BB000B01D0C948F1DFC01329680912901882341
:103BC00051F08091AC0287FF06C08EE1DF011D92AB
:103BD0008A95E9F7089586E0F9CF089508950C9441
:103BE000EE1D8091B202843061F10E94EF1D80E0F1
:103BF0000E94300C80E00E946F041092740288E1F1
:103C000090E020E40FB6F894A895809360000FBE72
:103C10002093600083B7817F846083BF83B7816016
:103C200083BF7894889583B78E7F83BF0FB6F8944F
:103C3000A895809160008861809360001092600078
:103C40000FBE08950895CF930E94ED1D0E94DB06DC
:103C50000E94221EC0E08C2F0E948706811105C0A1
:103C6000CF5FC830C1F7CF91089581E0FCCF0895B0
:103C70000C94371E0E9444160E94FE0A0E946B118B
:103C80000E946F040C94381E1F921FB61F921124BD
:103C90008F939F93AF93BF9380917402811113C050
:103CA0008091A8029091A902A091AA02B091AB02C2
:103CB0004196A11DB11D8093A8029093A902A093E3
:103CC000AA02B093AB02BF91AF919F918F911F90C9
:103CD0001FBE1F90189582E084BD93E095BD9AEFBA
:103CE00097BD80936E0008952FB7F8948091A80235
:103CF0009091A902A091AA02B091AB022FBF0895A2
:103D00002FB7F8946091A8027091A9028091AA023D
:103D10009091AB022FBF08959C014FB7F89480910A
:103D2000A8029091A902A091AA02B091AB024FBF44
:103D3000821B930B089578941F921FB61F92112433
:103D40008F939F93AF93BF938091A8029091A90204
:103D5000A091AA02B091AB020196A11DB11D809362
:103D6000A8029093A902A093AA02B093AB02BF91BC
:103D7000AF919F918F911F901FBE1F90189587E75D
:103D800097E7909301088093000888E19AE00FB6C6
:103D9000F894A895809360000FBE90936000FFCFC9
:103DA0009093AB018093AA0108950C94771C0E9414
:103DB000DB068FE39CE90197F1F700C000000E9449
:103DC000DB0680E00E94870680FF04C00E94D51EAB
:103DD0000C94BF1E08950E947D1C811102C00E9498
:103DE0002A1D0E94881C809373020E94901C90934D
:103DF000AD028093AC020E948C1C682F70E090E0B2
:103E000080E00E94DC196091460270914702809127
:103E10004802909149020C94161A809195020895D7
:103E2000CF93DF9300D00F92CDB7DEB79091B2025F
:103E3000943019F589837B836A8382E08093E9005B
:103E40008FEF9091E800815095FD06C095ED9A9511
:103E5000F1F700008111F5CF8091E80085FF0DC0DA
:103E600050E040E063E070E0CE0101960E947321D3
:103E70008091E8008E778093E8000F900F900F906C
:103E8000DF91CF910895BC0184E00C94101FBC0118
:103E900083E00C94101F9C0182E08093E9009FEF67
:103EA0008091E800915085FD06C085ED8A95F1F777
:103EB00000009111F5CF8091E80085FF0CC050E023
:103EC00040E066E070E0C9010E9473218091E80043
:103ED0008E778093E8000895CF93DF93EC01809173
:103EE00029018823B1F18091AC0287FF32C060E2E2
:103EF00082E08093E9008FEF9091E800815095FD7A
:103F000006C095ED9A95F1F700008111F5CF8091EB
:103F1000E80085FF1BC08091290170E050E040E07F
:103F2000811104C050E040E068E070E0CE010E94E2
:103F300073218091E8008E778093E80080E2FE0193
:103F4000A5E7B2E001900D928A95E1F7DF91CF915C
:103F5000089568E081E0CDCFCF93DF9300D00F923A
:103F6000CDB7DEB7FC018281898384818A83808119
:103F70008B8383E08093E9008FEF9091E80081507C
:103F800095FD06C095ED9A95F1F700008111F5CFEA
:103F90008091E80085FF0DC050E040E063E070E0F4
:103FA000CE0101960E9473218091E8008E77809364
:103FB000E8000F900F900F90DF91CF9108958091BE
:103FC000B102811109C00E9403230E9460238091E5
:103FD000E20084608093E20008951092B102089597
:103FE00008950895089542E061EC81E00E947F22E7
:103FF00042E261EC82E00E947F2242E061EC83E0D9
:104000000C947F228091B402833009F45FC030F4B5
:104010008130C1F1823009F49BC008958A3009F4DF
:1040200087C08B3009F46DC0893009F04EC0809193
:10403000B302813209F049C08091B7029091B80271
:10404000029708F042C08091E800877F8093E800E3
:104050008091E80082FF35C09091F3008091F200DA
:10406000029729F48091F1008B7F813021F48091B7
:10407000F100809395028091E8008B778093E800AF
:104080000C94B3228091B302813AF9F48091E80054
:10409000877F8093E8008091B7029091B802892BC6
:1040A00061F460E285E792E070E00E94C2218091B5
:1040B000E8008B778093E800089560E090E080E06E
:1040C000F3CF8091B2028111C3CF08958091B302E2
:1040D000813AD9F78091B7029091B802892BA9F75C
:1040E0008091E800877F8093E8008091E80080FF5E
:1040F000FCCF809129018093F1008091E8008E77B8
:10410000BDCF8091B302813201F78091B7029091C7
:10411000B802892BD1F68091E800877F8093E80070
:104120000E94B3228091B502809329010C94441619
:104130008091B302813249F68091E800877F8093B5
:10414000E8000E94B3228091B602809396020895FF
:104150008091B302813A09F0B8CF8091E800877F5F
:104160008093E8008091E80080FFFCCF8091960268
:10417000C2CF84B7877F84BF0FB6F894A89580918B
:104180006000886180936000109260000FBE80E83C
:1041900090E00FB6F89480936100909361000FBE99
:1041A0000E94EC110E9403230E9460238091E20090
:1041B00084608093E20078940E94E9250E94FC11BB
:1041C0008FE191E00E9466118091B2028530A9F0E2
:1041D0000E9408120E94FA110E94FB11F5CF0E9462
:1041E000F11D8091B002882341F00E94231E882394
:1041F00021F00E945D210E9444168091B202853018
:1042000071F30E943A1EE4CF0C940621292F332724
:104210002330310521F168F42130310509F443C020
:104220002230310509F444C090E080E030E020E025
:1042300026C02132310551F122323105A9F7633010
:10424000710590F7FB01EE0FFF1FE356FE4F208133
:10425000318166567E4FFB01808190E010C0992726
:104260008130910581F0009729F00297E9F6ECEA98
:10427000F2E002C0EEECF2E0849190E09F01FA01DE
:10428000318320830895EAEBF2E0F6CF63307105C5
:1042900058F6660F771FFB01ED55FE4F20813181E7
:1042A00089E090E0ECCF82E190E026E233E0E7CFD6
:1042B00084E590E022ED32E0E2CF80E189BD82E149
:1042C00089BD09B400FEFDCF8091D8008F7D809319
:1042D000D8008091E00082608093E0008091E0004F
:1042E00081FDFCCF0895AF92BF92CF92DF92FF92F3
:1042F0000F931F93CF93DF936C01EB018A010E9410
:10430000D222F82E811123C00115110539F0F801D0
:1043100080819181C81BD90BC80ED91EB12CA12C4C
:104320002097A9F08091E80085FD22C08091E800E7
:104330008E778093E80001151105A1F0F8018081C6
:104340009181A80EB91EB182A08285E0F82E8F2D32
:10435000DF91CF911F910F91FF90DF90CF90BF9091
:10436000AF9008950E94D2228823D1F2F82EEFCF89
:10437000F60181916F018093F1002197FFEFAF1A51
:10438000BF0ACECFFC018091B9029091BA02861784
:104390009707A0F06115710529F49091E8009E77C8
:1043A0009093E80090E06115710551F4911108C0F7
:1043B0008091E80082FF34C080E00895BC01F2CF14
:1043C0008091B2028823C1F18530C1F18091E8006B
:1043D00083FD30C08091E80082FDEACF8091E80043
:1043E00080FFE1CF8091F3002091F200382F61151A
:1043F000710519F02830310558F091E02830310569
:1044000009F090E02091E8002E772093E800CBCFD0
:1044100081918093F100615071092F5F3F4FE7CF89
:104420008091B202882341F0853041F08091E8000C
:1044300083FFBECF81E0089582E0089583E0089570
:10444000FC018091B9029091BA0286179707A0F0FB
:104450006115710529F48091E8008E778093E8005A
:1044600090E06115710551F4911108C08091E80048
:1044700082FF35C080E00895BC01F2CF8091B20286
:104480008823C9F18530C9F18091E80083FD31C0EE
:104490008091E80082FDEACF8091E80080FFE1CFC3
:1044A0008091F3002091F200382F6115710519F009
:1044B0002830310558F091E02830310509F090E0BE
:1044C0008091E8008E778093E800CBCF8491809331
:1044D000F1003196615071092F5F3F4FE6CF809117
:1044E000B202882341F0853041F08091E80083FFDB
:1044F000BDCF81E0089582E0089583E00895982F6C
:10450000973028F08F708093E90081E008959093B0
:10451000E900242F762F50E0981731F07091EC00CD
:104520002091ED005091F00021FD02C09F5FE8CF87
:104530003091EB003E7F3093EB003091ED003D7FFA
:104540003093ED003091EB0031603093EB007093CD
:10455000EC002093ED005093F0002091EE0027FD39
:10456000E5CF80E008958091B30287FF13C080916A
:10457000E80082FF06C08091E8008B778093E80016
:1045800004C08091B2028111F2CF08958091B202ED
:104590008823D9F38091E80080FFF8CF8091E8006C
:1045A0008E77ECCF2091E4003091E50095E6A901EB
:1045B0002091EC00822F817020FF06C08091E800DE
:1045C00080FF06C080E008952091E80022FD1AC017
:1045D0008091B202882389F0853089F08091EB00C8
:1045E00085FD0FC02091E4003091E500421753078C
:1045F000F9F29150E1F684E0089582E0089583E0B5
:10460000089581E008950E9471230E947923E0EECD
:10461000F0E0808181608083E8EDF0E080818F7739
:10462000808319BCA7EDB0E08C918E7F8C93808144
:104630008F7E80831092B10208950F931F93CF93C2
:10464000DF930E9471230E947923C8EDD0E0888116
:104650008F77888388818068888388818F7D88832D
:1046600019BC1092B2021092AE021092B0021092D7
:10467000AF0200EE10E0F80180818B7F808388819B
:104680008160888342E060E080E00E947F22E1EE6A
:10469000F0E080818E7F8083E2EEF0E080818160B7
:1046A0008083808188608083F80180818E7F808311
:1046B000888180618883DF91CF911F910F91089548
:1046C000E8EDF0E080818F7E8083E7EDF0E080818F
:1046D0008160808384E082BF81E08093B1020C948A
:1046E0001D23E8EDF0E080818E7F80831092E20050
:1046F00008951092DA001092E10008951F920F922F
:104700000FB60F9211242F933F934F935F936F93A4
:104710007F938F939F93AF93BF93EF93FF9380917A
:10472000E10082FF0BC08091E20082FF07C0809110
:10473000E1008B7F8093E1000E94E8258091DA0000
:1047400080FF19C08091D80080FF15C08091DA00E9
:104750008E7F8093DA008091D90080FF96C080E13F
:1047600089BD82E189BD09B400FEFDCF81E080935F
:10477000B2020E94DF1F8091E10080FF19C080918A
:10478000E20080FF15C08091E2008E7F8093E200FE
:104790008091E20080618093E2008091D800806285
:1047A0008093D80019BC85E08093B2020E94F11F6B
:1047B0008091E10084FF2BC08091E20084FF27C03C
:1047C00080E189BD82E189BD89B5982F917080FF14
:1047D000FBCF8091D8008F7D8093D8008091E1003D
:1047E0008F7E8093E1008091E2008F7E8093E200D3
:1047F0008091E20081608093E2008091AE02882384
:1048000009F449C084E08093B2020E94F21F8091B3
:10481000E10083FF29C08091E20083FF25C08091E1
:10482000E100877F8093E10082E08093B2021092E2
:10483000AE028091E1008E7F8093E1008091E200E2
:104840008E7F8093E2008091E20080618093E2009D
:1048500042E060E080E00E947F228091F00088606A
:104860008093F0000E94F01FFF91EF91BF91AF91F4
:104870009F918F917F916F915F914F913F912F9178
:104880000F900FBE0F901F90189519BC1092B20296
:104890000E94ED1F70CF8091E30087FD93E090931D
:1048A000B202B3CF1F920F920FB60F9211242F9323
:1048B0003F934F935F936F937F938F939F93AF93A8
:1048C000BF93CF93DF93EF93FF93D091E900DF7015
:1048D0008091EC00C82FC17080FDC0E81092E90003
:1048E0008091F000877F8093F00078940E94962456
:1048F0001092E9008091F00088608093F000CD2B49
:10490000CF70C093E900FF91EF91DF91CF91BF91FC
:10491000AF919F918F917F916F915F914F913F9157
:104920002F910F900FBE0F901F9018951F93CF934C
:10493000DF93CDB7DEB7AA970FB6F894DEBF0FBEF0
:10494000CDBF83EB92E02091F100FC012193CF01D8
:10495000F2E08B3B9F07B9F70E9402208091E800AC
:1049600083FF1EC18091B3029091B4029A3008F087
:1049700017C1E92FF0E0EF54F74D0C942028803850
:1049800099F0823809F00CC18091B7028F7087309E
:1049900008F006C18093E9008091EB0085FB882731
:1049A00080F91092E90006C08091AF029091B002A8
:1049B000911182609091E800977F9093E800809336
:1049C000F1001092F1008091E8008E77E5C0882315
:1049D00009F4D3C0823009F0E3C08091B50281119F
:1049E000D6C08091B7028F702FEF280F263008F0C5
:1049F000D7C08093E9002091EB0020FFC8C093301E
:104A000031F48091EB0080628093EB00C0C0909104
:104A1000EB0090619093EB0021E030E001C0220FA9
:104A20008A95EAF72093EA001092EA008091EB0061
:104A30008860EACF8111B4C01091B5021F778091D0
:104A4000E3008078812B8093E3008091E800877FEA
:104A50008093E8000E94B3228091E80080FFFCCFA1
:104A60008091E30080688093E30082E0111183E08D
:104A70008093B20295C08058823008F091C0809136
:104A8000B5029091B6028C3D23E09207A1F583E038
:104A90008A838AE289834FB7F894DE01139620E077
:104AA0003EE051E2E32FF0E050935700E49120FF05
:104AB00003C0E295EF703F5FEF708E2F90E0EA3019
:104AC000C0F0C7968D939D932F5F243159F74FBF48
:104AD0008091E800877F8093E8006AE270E0CE0171
:104AE00001960E94C2218091E8008B778093E800B4
:104AF00057C0C096E7CF6091B7027091B802AE017F
:104B00004F5F5F4F0E940421BC01892B09F448C00C
:104B10009091E800977F9093E80089819A810E94A4
:104B20002022E1CF8038E1F58091E800877F8093F3
:104B3000E8008091AE028093F10045CF811130C032
:104B40009091B502923060F58091E800877F809364
:104B5000E8009093AE020E94B3228091AE028823B7
:104B600011F084E005C08091E30087FDFACF81E079
:104B70008093B2020E94F31F13C08091B50281306E
:104B800079F481E0933009F080E08093B0021092D4
:104B9000E9008091E800877F8093E8000E94B322BB
:104BA0008091E80083FF0AC08091E800877F8093AE
:104BB000E8008091EB0080628093EB00AA960FB62C
:104BC000F894DEBF0FBECDBFDF91CF911F91089546
:104BD0000895CF938091B2028823A1F0C091E9009B
:104BE000CF709091EC00892F817090FD80E8C82BE8
:104BF0001092E9008091E80083FD0E949624CF7016
:104C0000C093E900CF9108950E9418260C940027C4
:104C10000E94F92658F00E94F22640F029F45F3FE6
:104C200029F00C94E92651110C9434270C94EF26AA
:104C30000E94112768F39923B1F3552391F3951B33
:104C4000550BBB27AA2762177307840738F09F5FAD
:104C50005F4F220F331F441FAA1FA9F335D00E2E1A
:104C60003AF0E0E832D091505040E695001CCAF787
:104C70002BD0FE2F29D0660F771F881FBB1F26174A
:104C800037074807AB07B0E809F0BB0B802DBF0121
:104C9000FF2793585F4F3AF09E3F510578F00C94F0
:104CA000E9260C9434275F3FE4F3983ED4F38695CD
:104CB00077956795B795F7959F5FC9F7880F911D11
:104CC0009695879597F90895E1E0660F771F881FFD
:104CD000BB1F621773078407BA0720F0621B730BB0
:104CE000840BBA0BEE1F88F7E09508950E947D268D
:104CF0006894B1110C94342708950E94192788F004
:104D00009F5798F0B92F9927B751B0F0E1F0660F8F
:104D1000771F881F991F1AF0BA95C9F714C0B130D0
:104D200091F00E943327B1E008950C943327672F48
:104D3000782F8827B85F39F0B93FCCF386957795FF
:104D40006795B395D9F73EF49095809570956195E8
:104D50007F4F8F4F9F4F0895E89409C097FB3EF413
:104D600090958095709561957F4F8F4F9F4F9923B8
:104D7000A9F0F92F96E9BB279395F6958795779536
:104D80006795B795F111F8CFFAF4BB0F11F460FFF6
:104D90001BC06F5F7F4F8F4F9F4F16C0882311F04E
:104DA00096E911C0772321F09EE8872F762F05C062
:104DB000662371F096E8862F70E060E02AF09A95FD
:104DC000660F771F881FDAF7880F9695879597F9F2
:104DD000089597F99F6780E870E060E008959FEF7D
:104DE00080EC089500240A94161617061806090682
:104DF000089500240A941216130614060506089551
:104E0000092E0394000C11F4882352F0BB0F40F4D8
:104E1000BF2B11F460FF04C06F5F7F4F8F4F9F4F18
:104E2000089557FD9058440F551F59F05F3F71F09A
:104E30004795880F97FB991F61F09F3F79F0879501
:104E40000895121613061406551FF2CF4695F1DF8A
:104E500008C0161617061806991FF1CF869571051A
:104E6000610508940895E894BB2766277727CB014E
:104E700097F908950E944D270C9400270E94F2266E
:104E800038F00E94F92620F0952311F00C94E926C1
:104E90000C94EF2611240C9434270E94112770F3F0
:104EA000959FC1F3950F50E0551F629FF001729FCF
:104EB000BB27F00DB11D639FAA27F00DB11DAA1FDE
:104EC000649F6627B00DA11D661F829F2227B00D2B
:104ED000A11D621F739FB00DA11D621F839FA00DB6
:104EE000611D221F749F3327A00D611D231F849F06
:104EF000600D211D822F762F6A2F11249F5750405D
:104F00009AF0F1F088234AF0EE0FFF1FBB1F661FD7
:104F1000771F881F91505040A9F79E3F510580F0A0
:104F20000C94E9260C9434275F3FE4F3983ED4F3C5
:104F3000869577956795B795F795E7959F5FC1F744
:104F4000FE2B880F911D9695879597F90895DB01A3
:104F50008F939F930E943528BF91AF91A29F800DA0
:104F6000911DA39F900DB29F900D11240895AA1B2F
:104F7000BB1B51E107C0AA1FBB1FA617B70710F044
:104F8000A61BB70B881F991F5A95A9F78095909576
:104F9000BC01CD01089597FB072E16F4009407D0AD
:104FA00077FD09D00E94B72707FC05D03EF4909505
:104FB00081959F4F0895709561957F4F0895A1E267
:104FC0001A2EAA1BBB1BFD010DC0AA1FBB1FEE1F83
:104FD000FF1FA217B307E407F50720F0A21BB30BCE
:104FE000E40BF50B661F771F881F991F1A9469F74A
:104FF00060957095809590959B01AC01BD01CF01A6
:105000000895052E97FB1EF400940E94182857FD62
:1050100007D00E94DF2707FC03D04EF40C94182819
:1050200050954095309521953F4F4F4F5F4F0895D4
:1050300090958095709561957F4F8F4F9F4F089504
:10504000EE0FFF1F0590F491E02D0994A29FB0018F
:10505000B39FC001A39F700D811D1124911DB29FAC
:10506000700D811D1124911D08950E942628A59F71
:10507000900DB49F900DA49F800D911D1124089553
:10508000B7FF0C9435280E943528821B930B089596
:10509000F999FECF92BD81BDF89A992780B5089500
:1050A000A8E1B0E042E050E00C947C28262FF9996A
:1050B000FECF92BD81BDF89A019700B4021639F077
:1050C0001FBA20BD0FB6F894FA9AF99A0FBE089548
:1050D0000396272F0E9457280E945628252F0E94AA
:1050E0005728242F0C9457280196272F0E945728C1
:1050F0000C945628DC01CB01FC01F999FECF06C0C7
:10510000F2BDE1BDF89A319600B40D924150504085
:10511000B8F70895F894FFCFD60BDB0BDD0BE00B4F
:10512000E30BE60BE90BEF13EF1346144614A01440
:10513000BC141C141C14D714631572157215D515E4
:105140001C141C14DE15531653165C165C165E16E2
:105150005C165C165C165316531663165C165C16CA
:105160006316BF24E724D025E724D0251A253B2544
:06517000D02592259E25CA
:105176000AFFFFFF0000FF030000FFFFFF0000FF24
:105186000300002808641E140A321E054050020D52
:105196001F6C1F4B1F471F431F01E200E900EA0077
:1051A600B500B600B700CD008301CC008A0192019C
:1051B60094012102230224022502260227022A0242
:1051C600B300B4006F00700081828392939735F626
:1051D600F79166343331C69490E200E900EA00B5EF
:1051E60000B600B700CD008301CC008A019201947D
:1051F600012102230224022502260227022A02B3E3
:1052060000B4006F00700081828340B62A180462E1
:0A521600033803E402FD0216030052
:00000001FF
